:100000000C945D010C948E010C948E010C948E0165
:100010000C948E010C948E010C948E010C948E0124
:100020000C948E010C948E010C948E010C948E0114
:100030000C948E010C948E010C948E010C948E0104
:100040000C948E010C948E010C948E010C948E01F4
:100050000C948E010C948E010C948E010C940D0561
:100060000C948E010C9481050C9457050C948E0110
:100070000C948E010C948E010C948E010C948E01C4
:100080000C948E010C948E010C948E010C948E01B4
:100090000C948E010C948E010C948E010C94B70577
:1000A0000C948E010C948E010C948E010C948E0194
:1000B0000C948E010C948E010C948E010C948E0184
:1000C0000C948E010C948E010C948E010C948E0174
:1000D0000C948E010C948E010C948E010C948E0164
:1000E0000C948E010C945F040C94A2020C941202E6
:1000F0000C940C020C9473030C9416020C94E601FD
:100100000C94EC010C94D3020C94F6010C94E301D2
:100110000C9454040C94C5010C94D7010C947004F5
:100120000C9475020C94DB060C940B030C944D0498
:100130000C94C5020C94F0010C94FE010C9408027E
:100140000C9474020C942A040C9404020C94730210
:100150000C943A040C94C0010C942B040C94FA01F6
:100160000C94DB010C94DF010C94B102696E69748C
:1001700069616C697A65640054455354204641496D
:100180004C45443A20756E657870656374656420EB
:1001900076616C7565730054455354205041535338
:1001A00045440020706F733D0020747970653D00F8
:1001B00076616C75653D00676F74206E3D007265F9
:1001C0007175657374696E672E2E2E000000220013
:1001D000250028002B002E00310034000201000011
:1001E000050108010B0105050505070508080808B4
:1001F000020202020A0A08080404040401010101BF
:1002000001010101030303030303030304070707B9
:100210000C0C0C0C0C0C0C0C02020202060606065E
:10022000060606060B0B0B0B0B0B0B0B010210202B
:10023000200808102040102040800201020108041C
:1002400002010102040810204080804020100804B0
:100250000201800402018040201008040201080409
:10026000020101020408102040800102040810204D
:10027000408000000A0B02090C0D0E080703040160
:10028000000000000000000000000000000000006E
:10029000000000000000000000000000000012113B
:1002A000100000000000000000000000000000003E
:1002B0000000000000000000DB0611241FBECFEF8D
:1002C000D1E2DEBFCDBF00E00CBF12E0A0E0B2E0A3
:1002D000ECE6F2E100E00BBF02C007900D92A832FD
:1002E000B107D9F723E0A8E2B2E001C01D92A2371E
:1002F000B207E1F711E0CDE5D1E000E006C02197BB
:100300000109802FFE010E942C09CC35D10780E025
:100310000807A9F70E9414070C9434090C940000F4
:10032000282F30E0F901EE58FD4F9491F901E45D7A
:10033000FD4F44912A513E4FF9012491222309F4A3
:1003400035C0992311F191509231F8F4E92FF0E082
:100350008827E255FE4F8F4F0C942C09DF01E301F3
:10036000C001D701DB01C501E601EC01F001F60196
:10037000FA01FE0104020802C5010C021202160273
:10038000809180008F7780938000E22FF0E0EE0F65
:10039000FF1FE453FE4FA591B4918FB7F894EC91F1
:1003A000611148C040954E234C938FBF08958091B2
:1003B00080008F7DE8CF80918000877FE4CF84B577
:1003C0008F7784BDE2CF84B58F7DFBCF8091B00065
:1003D0008F778093B000D9CF8091B0008F7DF9CF17
:1003E000809190008F7780939000CFCF8091900084
:1003F0008F7DF9CF80919000877FF5CF8091A0000D
:100400008F778093A000C1CF8091A0008F7DF9CF1E
:100410008091A000877FF5CF809120018F77809316
:100420002001B3CF809120018F7DF9CF80912001F1
:10043000877FF5CF4E2BB8CF3FB7F8948091C50298
:100440009091C602A091C702B091C80226B5A89BA0
:1004500005C02F3F19F00196A11DB11D3FBFBA2F56
:10046000A92F982F8827BC01CD01620F711D811D16
:10047000911D42E0660F771F881F991F4A95D1F79B
:1004800008958F929F92AF92BF92CF92DF92EF9298
:10049000FF924B015C010E941C026B017C010E94D7
:1004A0001C026C197D098E099F09683E7340810505
:1004B0009105A8F321E0821A9108A108B10888EEFD
:1004C000C80E83E0D81EE11CF11C81149104A10424
:1004D000B10429F7FF90EF90DF90CF90BF90AF90DD
:1004E0009F908F90089508950895AF92BF92CF92F4
:1004F000DF92EF92FF920F931F93CF93DF936C01E4
:100500007B018B01040F151FEB015E01AE18BF08C4
:10051000C017D10759F06991D601ED91FC91019076
:10052000F081E02DC6011995892B79F7C501DF917E
:10053000CF911F910F91FF90EF90DF90CF90BF90E0
:10054000AF900895FC01538D448D252F30E0842F0A
:1005500090E0821B930B541710F0CF9608950197EB
:100560000895FC01918D828D981761F0A28DAE0FD8
:10057000BF2FB11D5D968C91928D9F5F9F73928F5F
:1005800090E008958FEF9FEF0895FC01918D828D8B
:10059000981731F0828DE80FF11D858D90E0089558
:1005A0008FEF9FEF0895FC01918D228D892F90E0B0
:1005B000805C9F4F821B91098F739927089589EC66
:1005C00092E00E94D30221E0892B09F420E0822FDF
:1005D0000895FC01A48DA80FB92FB11DA35ABF4FD8
:1005E0002C91848D90E001968F739927848FA68932
:1005F000B7892C93A089B1898C91837080648C9386
:10060000938D848D981306C00288F389E02D808134
:100610008F7D80830895EF92FF920F931F93CF9366
:10062000DF93EC0181E0888F9B8D8C8D98131AC02D
:10063000E889F989808185FF15C09FB7F894EE8914
:10064000FF896083E889F989808183708064808371
:100650009FBF81E090E0DF91CF911F910F91FF90BC
:10066000EF900895F62E0B8D10E00F5F1F4F0F7364
:100670001127E02E8C8D8E110CC00FB607FCFACF1F
:10068000E889F989808185FFF5CFCE010E94E902D2
:10069000F1CFEB8DEC0FFD2FF11DE35AFF4FF082F0
:1006A0009FB7F8940B8FEA89FB8980818062CFCF56
:1006B0000F931F93CF93DF938C01D0E0C0E0F8013C
:1006C000EC0FFD1F6491662341F089EC92E00E94DB
:1006D0000B03892B11F02196F2CFCE01DF91CF9140
:1006E0001F910F910895CF93DF93EC01888D88239C
:1006F000B9F0AA89BB89E889F9898C9185FD03C085
:10070000808186FD0DC00FB607FCF7CF8C9185FF69
:10071000F2CF808185FFEDCFCE010E94E902E9CFC3
:10072000DF91CF91089580E090E0892B29F00E941D
:10073000DF0281110E94000080E090E0892B49F0E7
:1007400080E090E0892B29F00E94000081110E9436
:10075000000080E090E0892B49F080E090E0892B58
:1007600029F00E94000081110E94000080E090E0CA
:10077000892B49F080E090E0892B29F00E9400004D
:1007800081110C940000089520914902260F33270F
:10079000331F21323105ECF420919802FC0190E0E6
:1007A00080E0243069F082E00895A091490221910F
:1007B000AC01475D5D4FA40FB52FB11D2C93019681
:1007C000861798F380914902680F6093490280E090
:1007D000089581E008951092980281E08093970235
:1007E0001092920261E084E10E94900161E085E153
:1007F0000E949001E9EBF0E080818E7F8083808110
:100800008D7F808388E48093B80085E48093BC006A
:100810000895CF93DF9391E0909328028823B9F055
:10082000C091B800D091BA008091BC008A7B8093BF
:10083000BC0060E084E10E94900160E085E10E94DC
:1008400090010E94EB03D093BA00C093B800DF91EF
:10085000CF9108950895E0919F0280919E02E8173C
:1008600030F4F0E0E056FD4F808190E008958FEF86
:100870009FEF089590919F0280919E022FEF3FEF8E
:10088000981748F4E92FF0E0E056FD4F208130E062
:100890009F5F90939F02C901089580919E0290915D
:1008A0009F02891B990B0895CF93DF93CB01EA0137
:1008B000642F0E94C403CE01DF91CF910895CF939E
:1008C000DF931F92CDB7DEB7698361E0CE01019659
:1008D0000E94C40381E090E00F90DF91CF910895D2
:1008E00090E080E008958F929F92AF92BF920F9315
:1008F0001F93CF93DF93CDB7DEB7A1970FB6F894D0
:10090000DEBF0FBECDBF19A2423008F44AE08E010F
:100910000F5D1F4F842E912CB12CA12CA5019401A9
:100920000E940A09E62FB901CA01EA3044F5E05DE8
:10093000D801EE938D01232B242B252B79F790E002
:1009400080E0109769F0FD0101900020E9F73197F0
:10095000AF014A1B5B0BBD0189EC92E00E9475025E
:10096000A1960FB6F894DEBF0FBECDBFDF91CF9139
:100970001F910F91BF90AF909F908F900895E95C69
:10098000D7CF42E050E064E272E089EC92E00C9450
:100990007502CF93DF930E945803EC010E94C104BB
:1009A0008C0F9D1FDF91CF91089585ED8093BC0042
:1009B00080919A0290919B02A0919C02B0919D021D
:1009C0000796A11DB11D23E0B695A795979587952C
:1009D0002A95D1F72091BC0024FD03C01092980203
:1009E000089540919A0250919B0260919C027091EF
:1009F0009D02452B462B472B69F30097A105B105B6
:100A000041F025E32A95F1F700000197A109B1090A
:100A1000E1CF809199020C9409041F920F920FB6B6
:100A20000F9211242F933F938F939F93AF93BF9374
:100A30008091C1029091C202A091C302B091C40200
:100A40003091C00223E0230F2D3758F50196A11DE8
:100A5000B11D2093C0028093C1029093C202A09363
:100A6000C302B093C4028091C5029091C602A091C6
:100A7000C702B091C8020196A11DB11D8093C502A5
:100A80009093C602A093C702B093C802BF91AF91E2
:100A90009F918F913F912F910F900FBE0F901F90BC
:100AA000189526E8230F0296A11DB11DD2CF1F92E3
:100AB0000F920FB60F9211240BB60F922F933F9304
:100AC0004F935F936F937F938F939F93AF93BF9356
:100AD000EF93FF9389EC92E00E94E902FF91EF917E
:100AE000BF91AF919F918F917F916F915F914F9146
:100AF0003F912F910F900BBE0F900FBE0F901F9044
:100B000018951F920F920FB60F9211240BB60F92E9
:100B10002F938F939F93EF93FF93E091D902F091DE
:100B2000DA028081E091DF02F091E00282FD1DC0D7
:100B300090818091E2028F5F8F732091E302821790
:100B400041F0E091E202F0E0E753FD4F958F809392
:100B5000E202FF91EF919F918F912F910F900BBE29
:100B60000F900FBE0F901F9018958081F2CF1F92AB
:100B70000F920FB60F9211240BB60F922F933F9343
:100B80004F935F936F937F938F939F93AF93BF9395
:100B9000EF93FF938091B900887F803609F44DC0B0
:100BA00008F040C0883209F4A9C028F5803109F462
:100BB0009DC0C8F4882309F4FBC0883009F496C0AE
:100BC000FF91EF91BF91AF919F918F917F916F9125
:100BD0005F914F913F912F910F900BBE0F900FBEE1
:100BE0000F901F901895883109F488C0803241F722
:100BF0008093960214C0803409F49DC040F4803381
:100C0000B9F38833E9F68093960285ECB0C080355D
:100C100009F485C0883509F496C0883489F60E94A5
:100C2000D504CECF883909F48CC038F5883729F03F
:100C300050F4883611F0803719F683E080939802DB
:100C400010926B0257C0883809F47BC0803919F0C4
:100C5000803809F0B5CF80916B02803208F071C006
:100C6000E0916B0281E08E0F80936B028091BB005C
:100C7000F0E0E55BFD4F80833DC0803B39F0E0F460
:100C8000803A09F479C0883A09F09ACF84E08093D9
:100C9000980210924A0210924902E0916E02F0917D
:100CA0006F0219958091490281110FC081E08093F4
:100CB00049021092290209C0803C09F4A6CF883C61
:100CC00009F4A3CF883B09F07BCFE0914A0281E091
:100CD0008E0F80934A02F0E0E75DFD4F80818093A4
:100CE000BB0090914A028091490229C080919302F1
:100CF0008093BB0085EC8093BC0062CF90919502FD
:100D000080919402981758F5E091950281E08E0F3A
:100D100080939502F0E0EE58FD4F8081E9CFE0919D
:100D2000950281E08E0F809395028091BB00F0E0E8
:100D3000EE58FD4F80839091950280919402981710
:100D4000C8F285E8D8CFE091950281E08E0F8093BC
:100D500095028091BB00F0E0EE58FD4F80838091BA
:100D6000970281115CCF81E08093920284EA8093A4
:100D7000BC001092980224CF85EC8093BC001092A6
:100D8000980280916B02803230F4E0916B02F0E0C7
:100D9000E55BFD4F108260916B0270E0E0916C02A8
:100DA000F0916D028BE492E0199510926B0208CFDE
:100DB0001092960234CFE9ECF2E01382128288EEB0
:100DC00093E0A0E0B0E084839583A683B78324E01A
:100DD00032E03183208325EC30E03587248724EC12
:100DE00030E03787268720EC30E0318B208B21ECF8
:100DF00030E0338B228B22EC30E0358B248B26ECD9
:100E000030E0378B268B118E128E138E148EE6E611
:100E1000F3E01382128284839583A683B78386E1ED
:100E200092E0918380830895789484B5826084BD34
:100E300084B5816084BD85B5826085BD85B58160DE
:100E400085BD80916E00816080936E00109281005C
:100E50008091810082608093810080918100816017
:100E600080938100809180008160809380008091D8
:100E7000B10084608093B1008091B0008160809364
:100E8000B0008091910082608093910080919100E8
:100E900081608093910080919000816080939000A8
:100EA0008091A10082608093A1008091A100816067
:100EB0008093A1008091A00081608093A000809128
:100EC00021018260809321018091210181608093C2
:100ED00021018091200181608093200180917A001E
:100EE000846080937A0080917A00826080937A0097
:100EF00080917A00816080937A0080917A00806886
:100F000080937A001092C100E091D902F091DA0248
:100F100082E08083E091D502F091D6021082E091C8
:100F2000D702F091D80280E180831092E102E09133
:100F3000DD02F091DE0286E08083E091DB02F09139
:100F4000DC02808180618083E091DB02F091DC0231
:100F5000808188608083E091DB02F091DC028081F7
:100F600080688083E091DB02F091DC0280818F7DDC
:100F7000808364E670E080E090E00E9441028CE6AD
:100F800091E00E94C90410929F0210929E0210925A
:100F90007102109270020E94EB0383E792E090933B
:100FA0006F0280936E0284E792E090936D028093CB
:100FB0006C0288E98093B80064EF71E080E090E013
:100FC0000E944102D1E0FF24FA9483E0E82E95EEDE
:100FD000D92E25ECC22E8EEB91E00E94C9040E940E
:100FE0001C024B015C0180919802811161C0D09379
:100FF0009802D0939702F092960210929502E09296
:101000009402D09393028091930280618093930223
:1010100080919202813009F0D8C0109292020E9411
:101020001C024B015C01809193028093BB00809174
:101030009A0290919B02A0919C02B0919D02892BF3
:101040008A2B8B2BA1F00E941C0240909A02509098
:101050009B0260909C0270909D02681979098A0930
:101060009B09461657066806790608F442C0809127
:10107000BC0083FDD8CFC092BC000E941C024B0173
:101080005C0180919802813009F4A2C080919502A0
:10109000C4E0843010F4C0919502A2E7B2E0E0EA27
:1010A000F2E080E08C1751F19D9191938F5FFACF20
:1010B00080919A0290919B02A0919C02B0919D0216
:1010C000892B8A2B8B2B09F48ECF0E941C02409017
:1010D0009A0250909B0260909C0270909D02681949
:1010E00079098A099B09461657066806790608F0A9
:1010F0007ACF809199020E940904C0E010929F0269
:10110000C0939E0287EB91E00E9458036C2F70E021
:1011100090E080E04AE00E9473040E94C104C43061
:1011200009F04AC086E693E00E943A04A82E86E6BB
:1011300093E00E943A04B82E86E693E00E943A04B7
:10114000982E86E693E00E943A04C82F1A2D00E0FC
:10115000C8018B295C0180EB91E00E945803B50126
:1011600090E080E04AE00E94730489EA91E00E94E6
:101170005803692D70E090E080E04AE00E9473041B
:1011800083EA91E00E9458036C2F70E090E080E0C9
:101190004AE00E9473040E94C104A11492E0B906BF
:1011A00039F481E0981204C087E991E0CC2311F072
:1011B00088E791E00E94C90468EB7BE080E090E062
:1011C0000E9441020E94930306CFD092BC0055CFEB
:1011D00080919A0290919B02A0919C02B0919D02F5
:1011E000892B8A2B8B2B09F44CCF0E941C02409038
:1011F0009A0250909B0260909C0270909D02681928
:1012000079098A099B09461657066806790608F087
:1012100038CF6FCFA1E21A2EAA1BBB1BFD010DC058
:10122000AA1FBB1FEE1FFF1FA217B307E407F50796
:1012300020F0A21BB30BE40BF50B661F771F881F72
:10124000991F1A9469F760957095809590959B0108
:10125000AC01BD01CF010895EE0FFF1F881F8BBFAA
:0C1260000790F691E02D1994F894FFCF50
:10126C00000000000B037502A2027303D302B1024B
:10127C00C502000000005F04540470042A044D04ED
:08128C003A042B040D0A0000D6
:00000001FF
