:100000000C9435000C945D000C945D000C945D0024
:100010000C945D000C945D000C945D000C945D00EC
:100020000C945D000C945D000C945D000C945D00DC
:100030000C945D000C945D000C945D000C945D00CC
:100040000C94E0010C945D000C9450020C942A0274
:100050000C945D000C945D000C945D000C945D00AC
:100060000C945D000C945D00230311241FBECFEFA0
:10007000D8E0DEBFCDBF11E0A0E0B1E0E0EBF6E0FC
:1000800002C005900D92A833B107D9F721E0A8E38B
:10009000B1E001C01D92AE3DB207E1F710E0C5E34B
:1000A000D0E004C02197FE010E945003C433D10761
:1000B000C9F70E9482020C9456030C9400003FB7CB
:1000C000F89480913D0190913E01A0913F01B09143
:1000D000400126B5A89B05C02F3F19F00196A11D30
:1000E000B11D3FBFBA2FA92F982F8827BC01CD0182
:1000F000620F711D811D911D42E0660F771F881FE1
:10010000991F4A95D1F708958F929F92AF92BF920F
:10011000CF92DF92EF92FF924B015C010E945F0051
:100120006B017C010E945F006C197D098E099F099B
:10013000683E734081059105A8F321E0821A910879
:10014000A108B10888EEC80E83E0D81EE11CF11C9E
:1001500081149104A104B10429F7FF90EF90DF907E
:10016000CF90BF90AF909F908F900895AF92BF9225
:10017000CF92DF92EF92FF920F931F93CF93DF9373
:100180006C017B018B01040F151FEB015E01AE18A2
:10019000BF08C017D10759F06991D601ED91FC91C4
:1001A0000190F081E02DC6010995892B79F7C501F1
:1001B000DF91CF911F910F91FF90EF90DF90CF9043
:1001C000BF90AF900895FC01538D448D252F30E0F2
:1001D000842F90E0821B930B541710F0CF96089554
:1001E00001970895FC01918D828D981761F0A28D81
:1001F000AE0FBF2FB11D5D968C91928D9F5F9F7347
:10020000928F90E008958FEF9FEF0895FC01918DFC
:10021000828D981731F0828DE80FF11D858D90E069
:1002200008958FEF9FEF0895FC01918D228D892F06
:1002300090E0805C9F4F821B91098F7399270895EE
:1002400081E491E00E94140121E0892B09F420E06F
:10025000822F089580E090E0892B29F00E942001F0
:1002600081110C9400000895FC01A48DA80FB92FF2
:10027000B11DA35ABF4F2C91848D90E001968F73CE
:100280009927848FA689B7892C93A089B1898C91ED
:10029000837080648C93938D848D981306C002883C
:1002A000F389E02D80818F7D80830895EF92FF9206
:1002B0000F931F93CF93DF93EC0181E0888F9B8D89
:1002C0008C8D98131AC0E889F989808185FF15C043
:1002D0009FB7F894EE89FF896083E889F989808166
:1002E0008370806480839FBF81E090E0DF91CF9135
:1002F0001F910F91FF90EF900895F62E0B8D10E057
:100300000F5F1F4F0F731127E02E8C8D8E110CC0C5
:100310000FB607FCFACFE889F989808185FFF5CF10
:10032000CE010E943401F1CFEB8DEC0FFD2FF11DBA
:10033000E35AFF4FF0829FB7F8940B8FEA89FB894D
:1003400080818062CFCFCF93DF93EC01888D8823AB
:10035000B9F0AA89BB89E889F9898C9185FD03C028
:10036000808186FD0DC00FB607FCF7CF8C9185FF0D
:10037000F2CF808185FFEDCFCE010E943401E9CF1D
:10038000DF91CF910895CF93DF93FC01019000207E
:10039000E9F73197AF01481B590BBC0181E491E0AB
:1003A0000E94B600EC0142E050E062E171E081E4BD
:1003B00091E00E94B6008C0F9D1FDF91CF910895B0
:1003C0001F920F920FB60F9211242F933F938F938A
:1003D0009F93AF93BF938091390190913A01A0917F
:1003E0003B01B0913C013091380123E0230F2D37C0
:1003F00058F50196A11DB11D209338018093390154
:1004000090933A01A0933B01B0933C0180913D0150
:1004100090913E01A0913F01B09140010196A11D34
:10042000B11D80933D0190933E01A0933F01B09395
:100430004001BF91AF919F918F913F912F910F906C
:100440000FBE0F901F90189526E8230F0296A11D4E
:10045000B11DD2CF1F920F920FB60F9211242F937E
:100460003F934F935F936F937F938F939F93AF933C
:10047000BF93EF93FF9381E491E00E943401FF91D9
:10048000EF91BF91AF919F918F917F916F915F910C
:100490004F913F912F910F900FBE0F901F90189585
:1004A0001F920F920FB60F9211242F938F939F9349
:1004B000EF93FF93E0915101F09152018081E0911F
:1004C0005701F091580182FD1BC0908180915A0123
:1004D0008F5F8F7320915B01821741F0E0915A0189
:1004E000F0E0EF5BFE4F958F80935A01FF91EF9103
:1004F0009F918F912F910F900FBE0F901F90189585
:100500008081F4CF789484B5826084BD84B58160A5
:1005100084BD85B5826085BD85B5816085BD8091CE
:100520006E00816080936E00109281008091810046
:10053000826080938100809181008160809381003E
:10054000809180008160809380008091B100846000
:100550008093B1008091B00081608093B000809161
:100560007A00846080937A0080917A008260809320
:100570007A0080917A00816080937A0080917A007D
:10058000806880937A001092C100E0915101F0914F
:10059000520182E08083E0914D01F0914E01108282
:1005A000E0914F01F09150018FEC8083109259013E
:1005B000E0915501F091560186E08083E09153016E
:1005C000F0915401808180618083E0915301F0912A
:1005D0005401808188608083E0915301F09154013F
:1005E000808180688083E0915301F0915401808183
:1005F0008F7D808364E670E080E090E00E9484005C
:1006000085E191E00E94C30168EC70E080E090E039
:100610000E94840080E291E00E94C30168EC70E0D7
:1006200080E090E00E9484008DE291E00E94C3018E
:10063000C0E0D0E02097F1F30E9420018823D1F39D
:100640000E940000F7CFE1E4F1E01382128288EE0D
:1006500093E0A0E0B0E084839583A683B78384E031
:1006600091E09183808385EC90E09587848784EC8A
:1006700090E09787868780EC90E0918B808B81EC6F
:1006800090E0938B828B82EC90E0958B848B86EC50
:1006900090E0978B868B118E128E138E148E089598
:1006A000EE0FFF1F0590F491E02D0994F894FFCF11
:1006B000000000005601B600E300A3011401F2009F
:1006C00006010D0A00626F6F743A737461727400F0
:1006D000626F6F743A696E69742D6F6B00626F6F31
:0806E000743A7265616479004F
:00000001FF
