:100000000C9434000C9449000C9449000C94490061
:100010000C9449000C9449000C9449000C9449003C
:100020000C9449000C9449000C9449000C9449002C
:100030000C9449000C9449000C9449000C9449001C
:100040000C9449000C9449000C9449000C9449000C
:100050000C9449000C9449000C9449000C944900FC
:100060000C9449000C94490011241FBECFEFD8E036
:10007000DEBFCDBF11E0A0E0B1E0EEEDF1E002C0E7
:1000800005900D92A033B107D9F70E945F000C9440
:10009000ED000C9400009091C00095FFFCCF809380
:1000A000C6000895CF93DF93EC018881811103C0CE
:1000B000DF91CF91089521960E944B00F6CFCDB7E6
:1000C000DEB728970FB6F894DEBF0FBECDBF1092F3
:1000D000C50087E68093C40088E08093C10086E075
:1000E0008093C20080E480937C0087E880937A004C
:1000F0002FEF81EE94E0215080409040E1F700C066
:10010000000080E091E00E9452002FEF80E792E033
:10011000215080409040E1F700C0000080917A00BB
:10012000806480937A0080917A0086FBFF24F6F841
:1001300086FDF9CF00917800109179008CE091E074
:100140000E945200302F212F01151105A1F480E3E8
:100150000E944B008DE291E00E94520081E191E00B
:100160000436110580F28BE191E00538134058F612
:1001700086E291E0C8CF832F922F6AE070E00E9460
:10018000D900FE013196EF0DF11DF394805D80835F
:10019000832F922F362F272F0A9768F7F114D1F269
:1001A000FA94FE013196EF0DF11D80810E944B0003
:1001B000F5CFAA1BBB1B51E107C0AA1FBB1FA61787
:1001C000B70710F0A61BB70B881F991F5A95A9F700
:0E01D00080959095BC01CD010895F894FFCF65
:1001DE006164632D72656164790D0A006164633A2E
:1001EE00006164632D6C6F770D0A006164632D6886
:1001FE006967680D0A006164632D6D69640D0A00FC
:00000001FF
