:100000000C9434000C9449000C9449000C94490061
:100010000C9449000C9449000C9449000C9449003C
:100020000C9449000C9449000C9449000C9449002C
:100030000C9449000C9449000C9449000C9449001C
:100040000C9449000C9449000C9449000C9449000C
:100050000C9449000C9449000C9449000C944900FC
:100060000C9449000C94490011241FBECFEFD8E036
:10007000DEBFCDBF11E0A0E0B1E0E0E3F1E002C0FF
:1000800005900D92A032B107D9F70E9457000C9449
:1000900096000C940000FC018191811101C008952B
:1000A0009091C00095FFFCCF8093C600F5CF1092D1
:1000B000C50087E68093C40088E08093C10086E095
:1000C0008093C20080E480937C0087E880937A006C
:1000D0002FEF41EE84E0215040408040E1F700C026
:1000E000000080917A00806480937A0080917A0089
:1000F00086FDFCCF80917800909179009C01215978
:1001000031402B32314028F480E091E00E944B00D6
:10011000FFCF8C3B924028F08AE091E00E944B0098
:10012000F7CF85E191E00E944B00F2CFF894FFCF2A
:100130006164632D6D69640D0A006164632D6869F3
:1001400067680D0A006164632D6C6F770D0A00000B
:00000001FF
