:100000000C9434000C9449000C9449000C94490061
:100010000C9449000C9449000C9449000C9449003C
:100020000C9449000C9449000C9449000C9449002C
:100030000C9449000C9449000C9449000C9449001C
:100040000C9449000C9449000C9449000C9449000C
:100050000C9449000C9449000C9449000C944900FC
:100060000C9449000C94490011241FBECFEFD8E036
:10007000DEBFCDBF11E0A0E0B1E0E4ECF1E002C0F2
:1000800005900D92A831B107D9F70E945F000C943A
:10009000E0000C9400009091C00095FFFCCF80938D
:1000A000C6000895CF93DF93EC018881811103C0CE
:1000B000DF91CF91089521960E944B00F6CFCDB7E6
:1000C000DEB728970FB6F894DEBF0FBECDBF1092F3
:1000D000C50087E68093C40088E08093C10086E075
:1000E0008093C20052985A9A2FEF81EE94E02150EB
:1000F00080409040E1F700C0000080E091E00E9465
:10010000520000E010E081E099274A9993959817F2
:10011000D9F3EFE1FEE43197F1F700C00000DD24F0
:100120004A99D3947801FFEFEF1AFF0AD81689F0A5
:10013000D1100FC080E191E00E9452000F3F1F4F8D
:1001400051F480E30E944B008DE091E00E94520048
:1001500087018D2DD9CF10E03E2D2F2D832F922F8B
:100160006AE070E00E94CC00FE013196E10FF11DC3
:100170001F5F805D8083832F922F362F272F0A9752
:1001800068F7111509F31150FE013196E10FF11DC9
:1001900080810E944B00F5CFAA1BBB1B51E107C019
:1001A000AA1FBB1FA617B70710F0A61BB70B881F07
:1001B000991F5A95A9F780959095BC01CD01089596
:0401C000F894FFCFE1
:1001C400636F756E7465722D72656164790D0A00D2
:0801D40070726573733A0000BC
:00000001FF
