:100000000C9434000C9449000C9449000C94490061
:100010000C9449000C9449000C9449000C9449003C
:100020000C9449000C9449000C9449000C9449002C
:100030000C9449000C9449000C9449000C9449001C
:100040000C9449000C9449000C9449000C9449000C
:100050000C9449000C9449000C9449000C944900FC
:100060000C9449000C94490011241FBECFEFD8E036
:10007000DEBFCDBF11E0A0E0B1E0EEE1F1E002C0F3
:1000800005900D92AA32B107D9F70E9458000C943E
:100090008D000C940000FC012081211101C0089505
:1000A00001963091C00035FFFCCF2093C600F3CFFE
:1000B0001092C50087E68093C40088E08093C10059
:1000C00086E08093C20052985A9A2FEF81EE94E016
:1000D000215080409040E1F700C0000080E091E0B6
:1000E0000E944B0081E099274A9993959817D9F37C
:1000F000EFE1FEE43197F1F700C00000CC274A9908
:10010000C395C81781F38CE091E0C11511F08AE125
:0E01100091E00E944B008C2FE6CFF894FFCFB9
:10011E0062746E2D72656164790D0A0062746E2DC3
:10012E00707265737365640D0A0062746E2D72656C
:0A013E006C65617365640D0A000032
:00000001FF
