:100000000C9434000C9449000C9449000C94490061
:100010000C9449000C9449000C9449000C9449003C
:100020000C9449000C9449000C9449000C9449002C
:100030000C9449000C9449000C9449000C9449001C
:100040000C9449000C9449000C9449000C9449000C
:100050000C9449000C9449000C9449000C944900FC
:100060000C9449000C94490011241FBECFEFD8E036
:10007000DEBFCDBF11E0A0E0B1E0E4E0F1E002C0FE
:1000800005900D92A231B107D9F70E944B000C9454
:1000900080000C9400001092C50087E68093C40095
:1000A00088E08093C10086E08093C20052985A98FD
:1000B0002FEF80E792E0215080409040E1F700C0B0
:1000C000000089B182FB882780F990E029B1482F90
:1000D000322F347022FB882780F9411102C0311180
:1000E0009F5F983099F7E0E0F1E08191811101C0C4
:1000F000FFCF9091C00095FFFCCF8093C600F5CF55
:04010000F894FFCFA1
:10010400636C6F636B2D636F756E742D6F6B0D0A6B
:020114000000E9
:00000001FF
