:100000000C9434000C9449000C9449000C94490061
:100010000C9449000C9449000C9449000C9449003C
:100020000C9449000C9449000C9449000C9449002C
:100030000C9449000C9449000C9449000C9449001C
:100040000C9449000C9449000C9449000C9449000C
:100050000C9449000C9449000C9449000C944900FC
:100060000C9449000C94490011241FBECFEFD8E036
:10007000DEBFCDBF11E0A0E0B1E0E2E2F1E002C0FE
:1000800005900D92A033B107D9F70E9458000C9447
:100090008F000C940000FC012081211101C0089503
:1000A00001963091C00035FFFCCF2093C600F3CFFE
:1000B0001092C50087E68093C40088E08093C10059
:1000C00086E08093C2008AB180638AB95C9A5D98A9
:1000D0002FEF81EE94E0215080409040E1F700C086
:1000E000000080E091E00E944B008DE091E00E94D2
:1000F0004B0052985A9AC0E34A99FECF8BB18C2795
:100100008BB980E291E00E944B002FEF83EC99E0E5
:10011000215080409040E1F700C00000EDCFF894FE
:02012000FFCF0F
:100122006770696F2D72656164790D0A00706434BD
:100132003A68696768207064353A6C6F770D0A0017
:100142006770696F2D746F67676C65640D0A0000D4
:00000001FF
