:100000000C9434000C9449000C9449000C94490061
:100010000C9449000C9449000C9449000C9449003C
:100020000C9449000C9449000C9449000C9449002C
:100030000C9449000C9449000C9449000C9449001C
:100040000C9449000C9449000C9449000C9449000C
:100050000C9449000C9449000C9449000C944900FC
:100060000C9449000C94490011241FBECFEFD8E036
:10007000DEBFCDBF11E0A0E0B1E0E6E4F1E002C0F8
:1000800005900D92A231B107D9F70E9458000C9447
:10009000A1000C940000FC012081211101C00895F1
:1000A00001963091C00035FFFCCF2093C600F3CFFE
:1000B00000D000D000D0CDB7DEB71092C50087E6E3
:1000C0008093C40088E18093C10016E01093C200C1
:1000D0002FEF85EA9EE0215080409040E1F700C07C
:1000E000000080E091E00E944B00FE013196DF01AC
:1000F0001D921A95E9F780E09091C00097FFFCCF20
:100100009091C6009D3011F09A3099F4843098F3A4
:100110008981803581F78A818F3469F78B818E34AC
:1001200051F78C81873439F787E091E00E944B00CA
:10013000FFCF853008F7DF01A80FB11D9C938F5FBB
:06014000DBCFF894FFCFB5
:1001460050494E470D0A006C696E6B2D6F6B0D0A98
:020156000000A7
:00000001FF
