:100000000C9434000C9449000C9449000C94490061
:100010000C9449000C9449000C9449000C9449003C
:100020000C9449000C9449000C9449000C9449002C
:100030000C9449000C9449000C9449000C9449001C
:100040000C9449000C9449000C9449000C9449000C
:100050000C9449000C9449000C9449000C944900FC
:100060000C9449000C94490011241FBECFEFD8E036
:10007000DEBFCDBF11E0A0E0B1E0EEE3F1E002C0F1
:1000800005900D92A830B107D9F70E944B000C944F
:100090009D000C94000000D000D000D0CDB7DEB79A
:1000A0001092C50087E68093C40088E18093C10068
:1000B00086E08093C2001A821982FE01339684E0A2
:1000C000DF011D928A95E9F780E09091C00097FFCB
:1000D000FCCF9091C6009D3011F09A3019F5843014
:1000E00098F38981803581F78A81893469F78B811A
:1000F0008E3451F78C81873439F7BFEF29EF80E0D8
:10010000B15020408040E1F700C00000E0E0F1E0A5
:1001100081918823C9F29091C00095FFFCCF809314
:10012000C600F6CF853088F6E1E0F0E0EC0FFD1F69
:0E013000E80FF11D90838F5FC8CFF894FFCFCA
:08013E00504F4E470D0A00006E
:00000001FF
