:100000000C94A3060C94D4060C94D4060C94D40639
:100010000C94D4060C94D4060C94D4060C94D406F8
:100020000C94D4060C94D4060C94D4060C94D406E8
:100030000C94D4060C94D4060C94D4060C94D406D8
:100040000C94D4060C94D4060C94D4060C94D406C8
:100050000C94D4060C94D4060C94D4060C94021779
:100060000C94D4060C941E180C94F4170C94D4061B
:100070000C94D4060C94D4060C94D4060C94D40698
:100080000C94D4060C94D4060C94D4060C94D40688
:100090000C94CA170C94A0170C94D4060C9448180E
:1000A0000C94D4060C94D4060C94D4060C94D40668
:1000B0000C94D4060C94D4060C94D4060C94D40658
:1000C0000C94D4060C94D4060C94D4060C94761795
:1000D0000C944C170C94D4060C94D4060C94D406AF
:1000E0000C94D4060C9428090C9413120C947C07DD
:1000F0000C9403100C945A070C94CE080C94E7103F
:100100000C94AB080C94650B0C946C190C941C07A4
:100110000C94B3120C9441070C94E0120C94FF1051
:100120000C94BA080C9480070C941B070C942010B4
:100130000C94D7100C948B0F0C9460070C9445070B
:100140000C9468070C942C0F0C9450070C944907DE
:100150000C9467110C94F3100C943B070C94D50A83
:100160000C94D3210C94200C0C944D070C940D1579
:100170000C94DC080C9465080C94A0120C947B077A
:100180000C941E0B0C943A080C945A0E0C941A07FB
:100190000C9475090C9463150C9491120C945607E9
:1001A0000C9464070C9476070C9472070C946E07F9
:1001B000000020002300260029002C002F00320020
:1001C0000001000003010601090149324320627564
:1001D00073207265636F766572792E2E2E00000093
:1001E0000000003E5B4F5B3E3E6B4F6B3E1C3E7C17
:1001F0003E1C183C7E3C181C577D571C1C5E7F5EC5
:100200001C00183C1800FFE7C3E7FF001824180083
:10021000FFE7DBE7FF30483A060E2629792926401A
:100220007F050507407F05253F5A3CE73C5A7F3E46
:100230001C1C08081C1C3E7F14227F22145F5F00D8
:100240005F5F06097F017F006689956A6060606074
:100250006094A2FFA29408047E040810207E20105F
:1002600008082A1C08081C2A08081E101010100C68
:100270001E0C1E0C30383E3830060E3E0E060000B6
:1002800000000000005F00000007000700147F145A
:100290007F14242A7F2A12231308646236495620C9
:1002A000500008070300001C2241000041221C00EE
:1002B0002A1C7F1C2A08083E0808008070300008AD
:1002C00008080808000060600020100804023E5181
:1002D00049453E00427F4000724949494621414913
:1002E0004D331814127F1027454545393C4A49497A
:1002F0003141211109073649494936464949291EE4
:1003000000001400000040340000000814224114D2
:1003100014141414004122140802015909063E4124
:100320005D594E7C1211127C7F494949363E41414C
:1003300041227F4141413E7F494949417F090909A5
:10034000013E414151737F0808087F00417F410011
:100350002040413F017F081422417F404040407FC0
:10036000021C027F7F0408107F3E4141413E7F090D
:100370000909063E4151215E7F091929462649494E
:10038000493203017F01033F4040403F1F2040208E
:100390001F3F4038403F631408146303047804038C
:1003A0006159494D43007F4141410204081020003A
:1003B0004141417F040201020440404040400003AB
:1003C00007080020545478407F2844443838444477
:1003D0004428384444287F385454541800087E096F
:1003E0000218A4A49C787F0804047800447D40008F
:1003F0002040403D007F1028440000417F40007CA9
:10040000047804787C080404783844444438FC18A0
:1004100024241818242418FC7C0804040848545484
:10042000542404043F44243C4040207C1C204020B1
:100430001C3C4030403C44281028444C9090907C18
:100440004464544C4400083641000000770000002A
:100450004136080002010204023C2623263C1EA16C
:10046000A161123A4040207A3854545559215555CB
:10047000794122545478422155547840205455797A
:10048000400C1E527212395555555939545454590D
:1004900039555454580000457C410002457D4200C6
:1004A00001457C407D1211127DF0282528F07C54F6
:1004B0005545002054547C547C0A097F49324949EF
:1004C00049323A4444443A324A4848303A41412158
:1004D0007A3A42402078009DA0A07D3D4242423DB4
:1004E0003D4040403D3C24FF2424487E4943662B48
:1004F0002FFC2F2BFF0929F620C0887E09032054EA
:100500005479410000447D413048484A32384040E7
:10051000227A007A0A0A727D0D19317D2629292F47
:1005200028262929292630484D402038080808085F
:1005300008080808382F10C8ACBA2F102834FA0061
:10054000007B000008142A142222142A14085500E3
:10055000550055AA55AA55AAFF55FF55FF000000A2
:10056000FF00101010FF00141414FF001010FF0003
:10057000FF1010F010F0141414FC001414F700FF16
:100580000000FF00FF1414F404FC141417101F10D3
:10059000101F101F1414141F00101010F000000082
:1005A000001F101010101F10101010F0100000008D
:1005B000FF101010101010101010FF10000000FF9E
:1005C000140000FF00FF00001F10170000FC04F4DF
:1005D00014141710171414F404F40000FF00F71497
:1005E000141414141414F700F7141414171410101E
:1005F0001F101F141414F4141010F010F000001F3A
:10060000101F0000001F14000000FC140000F01078
:10061000F01010FF10FF141414FF141010101F001E
:10062000000000F010FFFFFFFFFFF0F0F0F0F0FF20
:10063000FFFF0000000000FFFF0F0F0F0F0F3844F7
:10064000443844FC4A4A4A347E02020606027E02CC
:100650007E0263554941633844443C04407E201E79
:100660002006027E020299A5E7A5991C2A492A1CA8
:100670004C7201724C304A4D4D303048784830BC95
:10068000625A463D3E494949007E0101017E2A2ABF
:100690002A2A2A44445F444440514A444040444A40
:1006A00051400000FF0103E080FF000008086B6B71
:1006B000083612362436060F090F060000181800F7
:1006C00000001010003040FF0101001F01011E005A
:1006D000191D1712003C3C3C3C00000000000001CA
:1006E00003070F1F3F7F0080C0E0F0F8FCFE52655B
:1006F0006164792E20506F6C6C696E6720736C6139
:100700007665732E2E2E003D3D3D204857205465C2
:10071000737420333A204D656761204D61737465B1
:1007200072203D3D3D005769726554696D656F7576
:1007300074206E3D00DB40A4A62EAF2000A1C8D3DC
:1007400000408DAED580A8000060000000000000D1
:100750000000000000000000E000000000000000B9
:1007600000000000000001E00000000000000000A8
:10077000000000000001F000000000000000000088
:100780000000000003F00000000000000000000076
:1007900000000007F0000000000000000000000062
:1007A000000007F80000000000000000000000004A
:1007B000000FF800000003C0007E000001E0007F91
:1007C0000FF800000003C000FE000001E000FFEF92
:1007D000F800000003C000FE000001E000FFFFF889
:1007E00000000003C000F00000000F007FFE7FC08B
:1007F000000003C000F00000000F003FFE7FF83F44
:10080000F1FBCFFCFEF3BC3DEFE01FFE7FFF7FFB63
:10081000FFDFFEFEFFBC3DEFE01FC6FFFF7FFBFFDB
:10082000DFFEFEFFBC3DEFE00FE3C7FE787BC3DEDB
:100830001EF0FFBC3DEF0007FF87FC787BC3DE1E88
:10084000F0F83C3DEF0001FFFFF0007BC3C01EF05D
:10085000F03C3DEF0001F37FE03FFBC3CFFEF0F043
:100860003C3DEF0003E33F807FFBC3DFFEF0F03C45
:100870003DEF0007E73C00787BC3DE1EF0F03C3D17
:10088000EF0007FFBE00787BC3DE1EF0F03C3DEFBB
:100890000007FFFE00787BC3DE1EF0F03C3DEF005A
:1008A0000FFFFE007FFBFFDFFEF0F03FFDEFE00FEC
:1008B000FFFF007FFBFFDFFEF0F03FFDEFE00FF9F1
:1008C000FF003E79F9CF9EF0F01F3DE7E01FF1FFFA
:1008D0000000000000000000000000001F80FF007A
:1008E0007FFFFFFFFFFFFFFFFFFFE01C007F007F98
:1008F000FFFFFFFEB46D888D18E000001F007FFF32
:10090000FFFFFE95AD7DB577E000000F007FFFFF94
:10091000FFFEA5AD9D8D19E0000006007FFFFFFFE3
:10092000FEB5ADEDB57EE0000000000001800000E6
:100930000000000000000003800000000000000034
:10094000000007C000000000000000000007C00019
:1009500000000000000000000FC0000000000000C8
:100960000000001FE00000000000000000001FE089
:100970000000000000000000003FE0000000000058
:10098000000000003FF00000000000000000007FB9
:10099000F0000000000000001FF87FF000000000E1
:1009A0000000003FFE7FF0000000000000003FFF5D
:1009B0007FF0000000000000001FFFFBE0000000CF
:1009C000000000000FFFF9FFC00000000000000F52
:1009D000FFF9FFF800000000000007FFF1FFFF0033
:1009E000000000000003FC73FFFF80000000000017
:1009F00001FE3FFFFF80000000000000FF1E0FFF10
:100A0000000000000000007FFE1FFC00000000004E
:100A100000003FFFFFF8000000000000000FDFFFB4
:100A2000E0000000000000001F19FFC000000000EF
:100A30000000003F3CFF00000000000000007E7C42
:100A4000F800000000000000007FFE7C00000000B5
:100A500000000000FFFFFC0000000000000000FF9D
:100A6000FFFE0000000000000000FFFFFE0000008D
:100A70000000000001FFEFFE000000000000000188
:100A8000FFCFFE0000000000000003FF07FE000093
:100A9000000000000003FC07FE0000000000000052
:100AA00003F003FE00000000000000018000FE00D3
:100AB0000000000000000000007E000000000000B8
:100AC000000000003E000000000000000000000CDC
:100AD000000000000000078000FC000003C00000D0
:100AE00000078001FC000003C0000000078001FC3B
:100AF000000003C0000000078001E00000001E00AD
:100B00000000078001E00000001E007FE3F79FF96E
:100B1000FDE7787BDFC0FFF7FFBFFDFDFF787BDFE0
:100B2000C0FFF7FFBFFDFDFF787BDFC0F0F787BC9C
:100B30003DE1FF787BDE00F0F787BC3DE1F0787B9C
:100B4000DE0000F787803DE1E0787BDE007FF787FD
:100B50009FFDE1E0787BDE00FFF787BFFDE1E078F5
:100B60007BDE00F0F787BC3DE1E0787BDE00F0F74C
:100B700087BC3DE1E0787BDE00F0F787BC3DE1E03B
:100B8000787BDE00FFF7FFBFFDE1E07FFBDFC0FF0A
:100B9000F7FFBFFDE1E07FFBDFC07CF3F39F3DE1AA
:100BA000E03E7BCFC000000000000000000000001D
:100BB000FFFFFFFFFFFFFFFFFFFFC0FFFFFFFFFD86
:100BC00068DB111A31C0FFFFFFFFFD2B5AFB6AEFF4
:100BD000C0FFFFFFFFFD4B5B3B1A33C0FFFFFFFF72
:100BE000FD6B5BDB6AFDC02200FF217469636B3A19
:100BF00020006F666600202D200045004F4C4544C4
:100C0000207265636F6E6E656374656400202000FA
:100C10006F6666003A2000450020696E697469615C
:100C20006C697A656400536C617665203078005B8E
:100C300045325D20005B45315D200000002100242D
:100C40000027002A002D00300033000101000004BD
:100C50000107010A0100002200250028002B002EB8
:100C6000003100340002010000050108010B0105FC
:100C7000050505070508080808020202020A0A0815
:100C8000080404040401010101010101010303033B
:100C90000303030303040707070C0C0C0C0C0C0CD8
:100CA0000C0202020206060606060606060B0B0BDF
:100CB0000B0B0B0B0B01021020200808102040101A
:100CC0002040800201020108040201010204081010
:100CD000204080804020100804020180040201802E
:100CE0004020100804020108040201010204081057
:100CF000204080010204081020408000000A0B02FE
:100D0000090C0D0E0807030401000000000000009C
:100D100000000000000000000000000000000000D3
:100D20000000000000000012111000000000000090
:100D300000000000000000000000000000000000B3
:100D400000006C19D32111241FBECFEFD1E2DEBF0A
:100D5000CDBF00E00CBF12E0A0E0B2E0EAECF6E4A8
:100D600000E00BBF02C007900D92AC35B107D9F778
:100D700025E0ACE5B2E001C01D92AE3DB207E1F75F
:100D800016E0C2EAD6E000E006C021970109802FF4
:100D9000FE010E941A22C13AD10780E00807A9F794
:100DA0000E943B1A0C9453230C940000CF93DF93C2
:100DB000EC019A01AB01E889F98982E08083211571
:100DC00081EE38074105510581F160E079E08DE35E
:100DD00090E00E94F82121503109410951095695AE
:100DE000479537952795EC85FD851082EE85FF8523
:100DF0002083188EEC89FD8986E08083EA89FB894F
:100E0000808180618083EA89FB898081886080831A
:100E1000EA89FB89808180688083EA89FB898081F7
:100E20008F7D8083DF91CF910895E889F9891082C1
:100E300020E1D9CF0895089508958150823108F0B6
:100E40005AC0E82FF0E08827E75DF84F8F4F0C94E9
:100E50001A2249074D073B07410745077B07500703
:100E600056075A076007640768076E0772077B0713
:100E700076077C078007809180008F7780938000C1
:100E80000895809180008F7DF9CF80918000877FC9
:100E9000F5CF84B58F7784BD089584B58F7DFBCF62
:100EA0008091B0008F778093B00008958091B0005A
:100EB0008F7DF9CF809190008F7780939000089577
:100EC000809190008F7DF9CF80919000877FF5CF42
:100ED0008091A0008F778093A00008958091A0005A
:100EE0008F7DF9CF8091A000877FF5CF8091200181
:100EF0008F77809320010895809120018F7DF9CF15
:100F000080912001877FF5CF1F93CF93DF93282F08
:100F100030E0F901E550F34F8491F901EB54F34FC0
:100F2000D491F901E159F34FC491CC23A9F0162FC4
:100F300081110E941D07EC2FF0E0EE0FFF1FEB5A0E
:100F4000F34FA591B4918FB7F894EC91111108C0AB
:100F5000D095DE23DC938FBFDF91CF911F91089551
:100F6000DE2BF8CFCF93DF9390E0FC01EB54F34FEF
:100F700024918159934FFC0184918823D1F090E012
:100F8000880F991FFC01E55CF34FA591B491FC011A
:100F9000EB5AF34FC591D49161110EC09FB7F894ED
:100FA0008C91E22FE0958E238C932881E223E883B5
:100FB0009FBFDF91CF9108958FB7F894EC91E22B0A
:100FC000EC938FBFF6CF3FB7F8948091A90390912F
:100FD000AA03A091AB03B091AC0326B5A89B05C0B2
:100FE0002F3F19F00196A11DB11D3FBFBA2FA92FA8
:100FF000982F8827BC01CD01620F711D811D911DA5
:1010000042E0660F771F881F991F4A95D1F7089510
:101010008F929F92AF92BF92CF92DF92EF92FF9208
:101020004B015C010E94E3076B017C010E94E30716
:101030006C197D098E099F09683E734081059105F1
:10104000A8F321E0821A9108A108B10888EEC80E21
:1010500083E0D81EE11CF11C81149104A104B104A9
:1010600029F7FF90EF90DF90CF90BF90AF909F90C7
:101070008F9008958091B1039091B203891B990BD1
:101080000895EF92FF920F931F93CF93DF938C01FC
:101090007B01D0E0C0E0F701EC0FFD1F64916623F7
:1010A00061F0D801ED91FC910190F081E02DC80133
:1010B0001995892B11F02196EECFCE01DF91CF91BA
:1010C0001F910F91FF90EF900895AF92BF92CF9232
:1010D000DF92EF92FF920F931F93CF93DF936C01F8
:1010E0007B018B01040F151FEB015E01AE18BF08D9
:1010F000C017D10759F06991D601ED91FC9101908B
:10110000F081E02DC6011995892B79F7C501DF9192
:10111000CF911F910F91FF90EF90DF90CF90BF90F4
:10112000AF900895FC01A089B1898C91A689B789F7
:1011300082FD0FC09C91818D8F5F8F73228D8217EE
:1011400049F0A18DAE0FBF2FB11D5D969C93818F8D
:1011500008958C910895FC01538D448D252F30E026
:10116000842F90E0821B930B541710F0CF960895B4
:1011700001970895FC01918D828D981761F0A28DE1
:10118000AE0FBF2FB11D5D968C91928D9F5F9F73A7
:10119000928F90E008958FEF9FEF0895FC01918D5D
:1011A000828D981731F0828DE80FF11D858D90E0CA
:1011B00008958FEF9FEF0895FC01918D228D892F67
:1011C00090E0805C9F4F821B91098F73992708954F
:1011D00087EB93E00E94DC0821E0892B09F420E0F2
:1011E000822F089584E594E00E94DC0821E0892B99
:1011F00009F420E0822F089581EF94E00E94DC083A
:1012000021E0892B09F420E0822F0895FC01A48DB0
:10121000A80FB92FB11DA35ABF4F2C91848D90E018
:1012200001968F739927848FA689B7892C93A089FB
:10123000B1898C91837080648C93938D848D981385
:1012400006C00288F389E02D80818F7D8083089518
:10125000EF92FF920F931F93CF93DF93EC0181E006
:10126000888F9B8D8C8D98131AC0E889F9898081AD
:1012700085FF15C09FB7F894EE89FF896083E889E0
:10128000F98980818370806480839FBF81E090E0D2
:10129000DF91CF911F910F91FF90EF900895F62E5F
:1012A0000B8D10E00F5F1F4F0F731127E02E8C8DF9
:1012B0008E110CC00FB607FCFACFE889F98980813E
:1012C00085FFF5CFCE010E940609F1CFEB8DEC0F23
:1012D000FD2FF11DE35AFF4FF0829FB7F8940B8F5B
:1012E000EA89FB8980818062CFCFCF93DF93EC01C5
:1012F000888D8823B9F0AA89BB89E889F9898C91FE
:1013000085FD03C0808186FD0DC00FB607FCF7CFB9
:101310008C9185FFF2CF808185FFEDCFCE010E94B9
:101320000609E9CFDF91CF91089580E090E0892B05
:1013300029F00E94FC0881110E94000080E090E0EA
:10134000892B29F00E94F20881110E94000080E0A0
:1013500090E0892B29F00E94E80881110E9400008A
:1013600080E090E0892B49F080E090E0892B29F023
:101370000E94000081110C9400000895EF92FF92EA
:101380000F931F93CF93DF93EC01EC80FD806E15DC
:101390007F050CF070C057FF04C0240F351F50E0CC
:1013A00040E08E819F81FA01E20FF31F8E179F07A5
:1013B0001CF49C01241B350B121613060CF05BC0A9
:1013C000922F842F8695869586958E9DD0018F9D30
:1013D000B00D11246A0F7B1FAF8DB8A1A60FB71FE8
:1013E000477049F188E0841B482F682F70E0FB01AB
:1013F000EA51F94FE491281708F063C0621B7109A4
:101400002FEF30E002C0359527956A95E2F7E22389
:101410000130110539F0B0F10230110561F58C9100
:10142000E82702C08C91E82BEC93941720F12C81D3
:101430003D81A20FB31FE92FE41BE83078F00230A2
:10144000110521F58E2F9C9190959C932C813D81C7
:10145000A20FB31F88508830B0F7E770EE2359F021
:10146000F0E0E252F94FE49101301105F9F010F18A
:101470000230110519F1DF91CF911F910F91FF906B
:10148000EF900895E0958C91E823CECF81E001158F
:10149000110509F480E081959E2F8C932C813D816C
:1014A000A20FB31F98509830C0F7D7CF8C91E82B7C
:1014B000EC93E1CFE0958C91E823FACF8C91E8276B
:1014C000F7CF0130110509F4ADCFE0F2023011057C
:1014D00009F4A5CFAE0DBF1DAECF0F931F93CF93D1
:1014E000DF9377FF04C0260F371F70E060E0DC0158
:1014F0001496CD91DC91FB01E20FF31FCE17DF07AD
:101500001CF49E01261B370B121613064CF5FA012C
:1015100057FD3796A3E0F595E795AA95E1F7EC9F7F
:10152000D001ED9FB00DFC9FB00D11246A0F7B1F01
:10153000DC015F96ED91FC91E60FF71F4770552790
:1015400081E090E001C0880F4A95EAF7482F01300A
:10155000110559F0A8F02E0F3F1F02301105E1F0E0
:10156000DF91CF911F910F9108952E0F3F1FE2172A
:10157000F307B1F38191DF011197842B8C93F7CF9F
:1015800080952E0F3F1FE217F30751F39191DF0172
:10159000119798239C93F7CFE217F30709F38191F2
:1015A000DF01119784278C93F7CF0F931F93FA01D4
:1015B000DC0156964C9156974230E9F04330A1F148
:1015C000413061F514964D915C91DA01AE1BBF0B71
:1015D000FD01E21BF30B77FD0BC0DC0116964D916C
:1015E0005C916417750724F4AB01BF010E946D0A7A
:1015F0001F910F91089514964D915C91DA01A61BED
:10160000B70BBD0161507109DC0116964D915C91DB
:10161000DA01AE1BBF0BFD01E21BF30B77FDE8CF38
:10162000AF010E94BE09E4CF16964D915C91DA019C
:10163000A61BB70BBD0161507109CDCF0F931F934E
:10164000FA01DC0156964C9156974230A9F043308E
:1016500091F1413019F514964D915C91DA01AE1B70
:10166000BF0BFD013197F7FD04C0AB01BF010E9424
:10167000BE091F910F91089514964D915C91DA0166
:10168000A61BB70BBD01DC0116964D915C91DA01EA
:10169000AE1BBF0BFD013197621B730BF7FDE9CF4A
:1016A000DC0116964D915C91E417F50714F7AF0134
:1016B0000E946D0ADECF16964D915C91DA01A61B51
:1016C000B70BBD01621B730BCECFFC0177FD64C06D
:1016D00080859185681779070CF05EC057FD5CC066
:1016E00082859385481759070CF056C08689823049
:1016F000B1F0833029F1813041F484819581841BDC
:10170000950BAB01BC01615071092130310509F124
:1017100008F443C02230310509F463C00895848180
:101720009581DC01A61BB70BBD0161507109868153
:101730009781DC01A41BB50BAD0141505109E5CFE8
:1017400086819781861B970BBA01AC0141505109E4
:10175000DCCFCA0157FD0796A3E095958795AA951A
:10176000E1F7A481B5818A9F90018B9F300D9A9FEC
:10177000300D1124620F731F078CF0A1E02DE60FCE
:10178000F71F4770552721E030E001C0220F4A952E
:10179000EAF78081822B80830895CA0157FD07965E
:1017A00033E0959587953A95E1F7A481B5818A9FB5
:1017B00090018B9F300D9A9F300D1124620F731F83
:1017C000078CF0A1E02DE60FF71F4770552781E049
:1017D00090E001C0880F4A95EAF7809590818923AF
:1017E000DACFCA0157FD079623E0959587952A958C
:1017F000E1F7A481B5818A9F90018B9F300D9A9F5C
:10180000300D1124620F731F078CF0A1E02DE60F3D
:10181000F71F4770552721E030E001C0220F4A959D
:10182000EAF780818227B7CF08958EBD00000DB4FE
:1018300007FEFDCF8EB508958CBD9DBD089508951A
:10184000FC016370668B84819581268137816130CC
:1018500039F0633029F09187808733872287089594
:10186000318720879387828708952F923F924F92E6
:101870005F926F927F928F929F92AF92BF92CF9220
:10188000DF92EF92FF920F931F93CF93DF93CDB729
:10189000DEB76A970FB6F894DEBF0FBECDBF9A8F42
:1018A000898F7A8369834A01D22E18870F83370183
:1018B000BC2CDC0159962D913C915A97211531058C
:1018C00009F015C118968D919C91199768177907A1
:1018D0000CF0D7C11A968D919C91481759070CF0BE
:1018E000D0C14C2C512CB6E0CB9E600D711D112443
:1018F0007C876B87161617060CF0C3C1EA2DF0E043
:10190000FA87E98793E0EE0FFF1F9A95E1F7F88BCE
:10191000EF87CF01840F951F181619060CF0B1C17F
:10192000A98DBA8D58968C91811104C0BFEABD155E
:1019300008F4D394A98DBA8DED91FC91119702848E
:10194000F385E02DCD011995B5E0DB9EC001112492
:10195000E981FA81FC83EB83312C212C9C012252FA
:101960003E4F388F2F8B4A2D50E05E8B4D8BEF8989
:10197000F88DE20DF31D44919E828D82D12CC12CF5
:1019800069817A81620D731D7A8B698B842F90E057
:101990009C8B8B8BE98DFA8DA081B18140FF82C039
:1019A000F1E0BF126FC0AF126DC01C96ED91FC91BB
:1019B0002F813885A4014C0D5D1D69897A89898D37
:1019C0009A8D1995EB89FC89F595E7954E2F5FEF78
:1019D000C51AD50A6D817E818D899E89680F791F10
:1019E0007E836D8398E0C916D10481F6AFEF2A1A81
:1019F0003A0AEB81FC81E40DF51DFC83EB83F5E0F5
:101A00002F16310409F0B3CF2F81388526153705FD
:101A1000B9F0A98DBA8DED91FC91B1E0BB1257C020
:101A2000AB1255C069817A816B5F7F4F0088F18965
:101A3000E02D830128E030E0A401898D9A8D19956D
:101A4000A98DBA8DED91FC9111970688F789E02D4B
:101A5000CD016A960FB6F894DEBF0FBECDBFDF9101
:101A6000CF911F910F91FF90EF90DF90CF90BF909B
:101A7000AF909F908F907F906F905F904F903F902E
:101A80002F9019941E96ED91FC91EF80F8840985B2
:101A90001A8592014D815E816B817C81898D9A8D41
:101AA000199590CF2F8138852615370509F48ACFEF
:101AB00031E0B31207C0A31205C01C96ED91FC9152
:101AC000930178CF1E96ED91FC917301E0CF6B8569
:101AD0007C85641975090684F785E02D73010F85EF
:101AE00018899201A401898D9A8D1995A9CFF901C0
:101AF00034969491329745915491D91AB7E0DB9E70
:101B0000400D511D1124F901259134913C8B2B8BF3
:101B1000FA0125903490FA013296749031963491FE
:101B2000398B329664903196449041E04C1518F010
:101B30004A1508F07FC0662D062C000C770B7C83BD
:101B40006B83842D042C000C990B9E838D83A98DAF
:101B5000BA8DED91FC9111970284F385E02DCD01B2
:101B60001995512CD12CC12CEA2DF0E0FA87E98788
:101B70002B2D30E03C872B87A401440D511D47FCE1
:101B80005A95588F4F8B69817A81660D711D67FC5C
:101B90007A957E876D877989C71608F051CF2C2DED
:101BA00030E04D815E81420F531FA985BA854A9F5F
:101BB000C0014B9F900D5A9F900D1124FC01E80D20
:101BC000F91DF88BEF87852D612C4F89588D420FB9
:101BD000531F5E8B4D8B671408F050C04424439410
:101BE000480E877041F4C1010196EB89FC89E20D32
:101BF000F31DD4901C01D7FE19C0A98DBA8DED91AB
:101C0000FC91662D70E0B1E0BB1219C0AB1217C099
:101C10002D853E85620F731F0484F585E02D2F818D
:101C200038854D895E89898D9A8D1995DD0C63946F
:101C3000842DD1CF1E821D821C821B8288CF4B81B6
:101C40005C81640F751FAB85BC856A9FC0016B9F6B
:101C5000900D7A9F900D112469817A81680F791F08
:101C60000684F785E02DEF80F88409851A859D01AB
:101C70004F855889898D9A8D1995D8CF570CC39463
:101C80008ACF6A960FB6F894DEBF0FBECDBFDF9144
:101C9000CF911F910F91FF90EF90DF90CF90BF9069
:101CA000AF909F908F907F906F905F904F903F90FC
:101CB0002F9008958F929F92AF92CF92EF92FF92C2
:101CC0000F931F93CF93DF93EC01262F898D9A8D6D
:101CD000009709F051C06A30D1F41D861C868D89A9
:101CE00048E0849F900111248E859F85820F931F69
:101CF0009F878E8781E090E0DF91CF911F910F91B8
:101D0000FF90EF90CF90AF909F908F9008956D309F
:101D100089F3CC88AD888F898823C1F08C859D8517
:101D200036E0C39E800D911D1124488559854817C2
:101D3000590764F44E855F851D861C8638E0A39E96
:101D4000C0011124840F951F9F878E87EA88FB8826
:101D5000088919894E855F856C857D85CE010E9435
:101D6000350C2C898C859D8546E0249F800D911D26
:101D700011249D878C87BECF6A3069F41D861C862E
:101D8000FC013896E4912D898E859F85E29F800D18
:101D9000911D1124ADCF6D3009F4ACCFFC01349608
:101DA0003491631708F4A6CF3296E491E61708F44D
:101DB000A1CFFC01329685909490462F431B342F7F
:101DC00047E0349F800C911C1124F4013296349129
:101DD0003196E4913323A9F1EE2399F1CC88F401F3
:101DE0003596E491AD884F89442301F10E2E000C05
:101DF000FF0BE30FF11DCE9EA001CF9E500D1124CD
:101E00006C857D85460F571F688579856417750732
:101E10006CF44E855F851D861C86FC013896E49126
:101E2000AE9E400D511D11245F874E87EA88FB88C6
:101E3000088919894E855F856C857D85CE010E9454
:101E4000350CF4013496E4912C898C859D85E29FB4
:101E5000800D911D11248DCF6F927F928F929F9252
:101E6000AF92BF92CF92DF92EF92FF920F931F93A8
:101E7000CF93DF93EC016B015A0139014801E881EE
:101E8000F9810284F385E02D1995E881F9810288B2
:101E9000F389E02D87019301A501B601CE011995C3
:101EA000A501480D591D41505109E881F981028869
:101EB000F389E02D9301B601CE011995E881F981EE
:101EC0000088F189E02D9401A501B601CE01199594
:101ED000C60CD71CB60161507109E881F9810088F0
:101EE000F189E02D9401A501CE011995E881F981D0
:101EF0000688F789E02DCE01DF91CF911F910F91D8
:101F0000FF90EF90DF90CF90BF90AF909F908F9019
:101F10007F906F9019946F927F928F929F92AF9261
:101F2000BF92CF92DF92EF92FF920F931F93CF93C6
:101F3000DF935C01EB016A01490138018701DC0193
:101F4000ED91FC916217730719F5641675062CF074
:101F5000962D872D3A01C92ED82E960126193709BC
:101F60002F5F3F4F048CF58DE02DA301BE01C5010D
:101F70001995DF91CF911F910F91FF90EF90DF9016
:101F8000CF90BF90AF909F908F907F906F9008956B
:101F90004615570591F42617370724F0892D4B0174
:101FA000C22FD82F9E01281939092F5F3F4F068C69
:101FB000F78DE02DA601B401DACF0284F385E02D80
:101FC0001995D501ED91FC910488F589E02D8301E7
:101FD0009401A601BE01C5011995D501ED91FC91B1
:101FE0000688F789E02DC501DF91CF911F910F91F0
:101FF000FF90EF90DF90CF90BF90AF909F908F9029
:102000007F906F901994EF92FF920F931F93DC01D2
:102010001A960D911C911B9718962D913C9119972A
:10202000ED91FC9100A0F1A1E02D7B0150E040E09A
:1020300070E060E019951F910F91FF90EF90089567
:102040004F925F926F927F928F929F92AF92BF92C8
:10205000CF92DF92EF92FF920F931F93CF93DF9374
:102060006C012B015A0139014801DC01ED91FC9111
:102070000284F385E02D1995E201640C751CD601EC
:10208000ED91FC91C615D7055CF40088F189E02D2F
:1020900087019401A501BE01C60119952196EFCFD4
:1020A0000688F789E02DC601DF91CF911F910F912E
:1020B000FF90EF90DF90CF90BF90AF909F908F9068
:1020C0007F906F905F904F9019948F929F92AF92F4
:1020D000BF92CF92DF92EF92FF920F931F93CF9315
:1020E000DF93EC015B014A016901E881F981028417
:1020F000F385E02D199595012C0D3D1D21503109D9
:10210000E881F9810488F589E02D78018401A40132
:10211000B501CE011995E881F9810688F789E02D8E
:10212000CE01DF91CF911F910F91FF90EF90DF9043
:10213000CF90BF90AF909F908F9019948F929F9265
:10214000AF92BF92CF92DF92EF92FF920F931F93C5
:10215000CF93DF93EC015B014A0169017801E881CB
:10216000F9810284F385E02D1995C80CD91C8601EC
:1021700001501109E881F9810488F589E02D950164
:10218000A401B501CE011995E881F9810688F78986
:10219000E02DCE01DF91CF911F910F91FF90EF9035
:1021A000DF90CF90BF90AF909F908F901994EF9257
:1021B000FF920F931F93DC01ED91FC9100A0F1A120
:1021C000E02D19951F910F91FF90EF9008950F93B7
:1021D0001F93DC01ED91FC91068CF78DE02D199594
:1021E0001F910F9108950F931F93DC01ED91FC91C6
:1021F000048CF58DE02D19951F910F910895DC0148
:10220000ED91FC910084F185E02D19943F924F925D
:102210005F926F927F928F929F92AF92BF92CF9276
:10222000DF92EF92FF920F931F93CF93DF935C01A6
:102230007B014A016901390187E0680E711C93E056
:10224000759467949A95E1F72B01400E511E10E0AA
:1022500000E0312CD0E0C0E0CE0187709927330C2C
:10226000892B59F4FE0183E0F595E7958A95E1F70E
:10227000E00FF11FE80DF91D349037FE0AC021E090
:1022800030E0A701B5016C0F7D1F8AE995E00E943F
:10229000FF102196CC16DD06F9F68FEFE81AF80A42
:1022A000060D171DE414F504A9F6DF91CF911F91D7
:1022B0000F91FF90EF90DF90CF90BF90AF909F90E5
:1022C0008F907F906F905F904F903F9008952F92E6
:1022D0003F924F925F926F927F928F929F92AF92B6
:1022E000BF92CF92DF92EF92FF920F931F93CF9303
:1022F000DF9300D000D0CDB7DEB73C016A013E834A
:102300002D83FC82EB825801A41AB50AB7FE03C0E4
:10231000B194A194B1088D809E80861A970A97FE89
:1023200003C09194819491088A149B045CF0902FCF
:10233000812F0D811E819D838E839C2D8D2D6B01A0
:10234000692F782F0C151D055CF09D818E817E8391
:102350006D83692F782F902F812F8601C92ED82E5B
:102360001601201A310A2B012D813E81421A530A8F
:1023700057FE03C0519441945108710137FE03C0C8
:102380003FEFE31AF30AF594E7948D819E81861757
:1023900097075CF5A1E0B0E0BA83A983C016D10627
:1023A0004CF1D301ED91FC910484F585E02D2B8156
:1023B0003C81A8016D817E818A149B041CF04D81B3
:1023C0005E81B801C3011995E418F508F7FE0AC04B
:1023D0002D813E8189819A81280F391F3E832D836B
:1023E000E20CF31C0F5F1F4FD9CF2FEF3FEF3A8363
:1023F0002983D4CF26960FB6F894DEBF0FBECDBF8B
:10240000DF91CF911F910F91FF90EF90DF90CF90D0
:10241000BF90AF909F908F907F906F905F904F9004
:102420003F902F900895089520919C02260F332706
:10243000331F21323105ECF42091E502FC0190E0DC
:1024400080E0243069F082E00895A0919C022191FF
:10245000AC0144585D4FA40FB52FB11D2C930196CC
:10246000861798F380919C02680F60939C0280E02D
:10247000089581E008951092E50281E08093E402DE
:102480001092DF0261E084E10E94840761E085E14F
:102490000E948407E9EBF0E080818E7F8083808159
:1024A0008D7F808388E48093B80085E48093BC00AE
:1024B00008951092B2031092B1031092B4031092D7
:1024C000B3030E943B128AE197E09093B00380939C
:1024D000AF038BE197E09093AE038093AD03089533
:1024E000CF93DF9391E090930B038823B9F0C091D1
:1024F000B800D091BA008091BC008A7B8093BC0068
:1025000060E084E10E94840760E085E10E94840726
:102510000E943B12D093BA00C093B800DF91CF91D4
:102520000895E091B2038091B103E81730F4F0E030
:10253000E551FD4F808190E008958FEF9FEF089562
:102540009091B2038091B1032FEF3FEF981748F4B9
:10255000E92FF0E0E551FD4F208130E09F5F90933F
:10256000B203C9010895CF92DF92EF92FF920F93C9
:102570001F93CF93DF937C01CB018A012091B60397
:10258000222389F0EB016B01C40ED51ECC15DD05AD
:1025900069F06991D701ED91FC910190F081E02DF6
:1025A000C7011995F3CF642F0E941412C801DF915F
:1025B000CF911F910F91FF90EF90DF90CF900895F2
:1025C000CF93DF931F92CDB7DEB769832091B60317
:1025D0002223F9F02091B303203258F021E030E0BB
:1025E000FC013383228390E080E00F90DF91CF9154
:1025F00008958091B403E82FF0E0E45AFD4F9981EB
:1026000090838F5F8093B4038093B30381E090E065
:10261000ECCF61E0CE0101960E941412F7CFCF9269
:10262000DF92EF92FF920F931F93CF93DF93D0919E
:10263000B30381E0D13208F09CC0C091B5030E9481
:10264000E3076B017C018091E50281116CC082E09F
:102650008093E50281E08093E4028FEF8093E302B0
:102660001092E202D093E102ACE5B2E0EFEBF2E0CF
:1026700080E0D8138DC01092E0028091E002CC0F70
:10268000C82BC093E0028091DF02813009F084C042
:102690001092DF020E94E3076B017C018091E0024F
:1026A0008093BB008091E7029091E802A091E9023B
:1026B000B091EA02892B8A2B8B2BA1F00E94E307B1
:1026C0000091E7021091E8022091E9023091EA02BC
:1026D0006C197D098E099F09061717072807390706
:1026E00008F442C08091BC0083FDD8CF85EC809374
:1026F000BC000E94E3076B017C018091E5028230FF
:1027000009F44CC08091E3028F3F09F469C08091C5
:10271000E302803209F466C08091E302803309F459
:1027200063C084E026C08091E7029091E802A09106
:10273000E902B091EA02892B8A2B8B2B09F483CF13
:102740000E94E3070091E7021091E8022091E9025C
:102750003091EA026C197D098E099F090617170747
:102760002807390708F06FCF8091E6020E947012A7
:1027700085E01092B4031092B3031092B603DF9178
:10278000CF911F910F91FF90EF90DF90CF90089520
:102790009D9191938F5F6DCF85EEA9CF8091E702D8
:1027A0009091E802A091E902B091EA02892B8A2B6C
:1027B0008B2B09F4A2CF0E94E3070091E70210914E
:1027C000E8022091E9023091EA026C197D098E0934
:1027D0009F09061717072807390708F08ECFC4CFBF
:1027E00080E0C7CF82E0C5CF83E0C3CFEF92FF92F6
:1027F0000F931F93CF93DF937C01C62F8091B70572
:102800009091B805009709F459C02091BB0531E0BB
:102810003093B6032093B5031092B4031092B30320
:10282000DC01ED91FC910190F081E02D60E01995C3
:102830008701EE24E394F12CD1E0C1508091B705DB
:102840009091B805CF3F91F1B0E2EB16F104D8F0CA
:102850000E940F138091B7059091B8052091BB0598
:10286000D093B6032093B5031092B4031092B30330
:10287000DC01ED91FC910190F081E02D60E0199573
:10288000EE24E394F12C8091B7059091B805F801FE
:102890006491DC01ED91FC910190F081E02D19959E
:1028A000BFEFEB1AFB0A0F5F1F4FC7CFDF91CF912E
:1028B0001F910F91FF90EF900C940F13E091C705BB
:1028C000F091C80590818091CD0580958923808302
:1028D0008701C15008F438C0F80184912091B505F2
:1028E0003091B605232B29F00E94150C0F5F1F4F66
:1028F000F0CF28E030E040E8E091C305F091C40556
:102900009091CB05582F5423D9F05081952B90836B
:10291000E091C505F091C60590815091CC05952BAD
:102920009083E091C505F091C60550819091CC054A
:10293000909595239083469521503109E9F6D6CF9D
:10294000508190959523E3CFDF91CF911F910F9107
:10295000FF90EF9008951F93CF93DF93EC018D8D3F
:102960009E8D009721F1162F29A131E03093B603F7
:102970002093B5031092B4031092B303DC01ED91E0
:10298000FC910190F081E02D60E019958D8D9E8D78
:10299000DC01ED91FC910190F081E02D612F199502
:1029A0008D8D9E8DDF91CF911F910C940F13ADA54E
:1029B000BEA59C918BA9809589238C938B8D9C8D32
:1029C000892B31F0862FDF91CF911F910C94150C3C
:1029D00028E030E080E8A9A5BAA599A9462F4823A8
:1029E000C1F04C91942B9C93ABA5BCA59C914AA99A
:1029F000942B9C93ABA5BCA54C919AA9909594233C
:102A00009C9386952150310931F7DF91CF911F9129
:102A100008954C9190959423E6CF1F93CF93DF9325
:102A2000EC01162F8D8D9E8D892BB1F12DA93EA91C
:102A30004FA958AD60E074E284EF90E00E94F82165
:102A400020513109410951095695479537952795E8
:102A50002093B80066EA111167EACE010E94AB1418
:102A60008D8D9E8D892B41F129AD3AAD4BAD5CAD7D
:102A700060E074E284EF90E00E94F8212051310977
:102A80004109510956954795379527952093B800E8
:102A9000DF91CF911F9108958B8D9C8D892B21F013
:102AA0008EAD9FAD0E941C0CEFA5F8A990818CA95A
:102AB000809589238083CECFEFA5F8A980819CA93A
:102AC000892B8083E5CF90E080E008952091A005D8
:102AD0003091A105C901079697FD079623E09595CA
:102AE00087952A95E1F720919E0530919F05829F59
:102AF000A001839F500D929F500D112470E060E063
:102B00008091B9059091BA050C944C230E944723FB
:102B1000FB0101900020E9F73197AF01461B570BED
:102B2000DC01ED91FC910280F381E02D1994CF93AB
:102B3000DF93BC0181EF94E00E944108EC0168E55D
:102B400072E081EF94E00E9488158C0F9D1FDF9149
:102B5000CF9108959F92AF92BF92CF92DF92EF9262
:102B6000FF920F931F93CF93DF938AEC91E00E9423
:102B7000971561E085E10E94B20761E084E10E945F
:102B8000B20761E085E10E94840761E084E10E9470
:102B900084078FE090E00197F1F799E0A92ECFE04C
:102BA000D0E00FE01DE029ECE22E2CE0F22E33E81D
:102BB000C32E3CE0D32E60E085E10E948407CE0165
:102BC0000197F1F761E085E10E948407CE0101974A
:102BD000F1F7F8018491F701B490F6019490911007
:102BE00043C0AA94A110E7CF60E084E10E9484076B
:102BF000CFE0D0E0CE010197F1F761E085E10E94DE
:102C00008407CE010197F1F761E084E10E94840717
:102C10002197F1F760E085E10E94B20760E084E16E
:102C20000E94B2070E94591288E98093B80010925E
:102C30000B0388EA91E6A0E0B0E08093E70290936E
:102C4000E802A093E902B093EA0281E08093E602F1
:102C5000DF91CF911F910F91FF90EF90DF90CF9078
:102C6000BF90AF909F90089581110E941D07E92D9C
:102C7000F0E0EE0FFF1FE055FE4FA591B4918C914F
:102C8000B82209F4AECFB0CF8F929F92AF92BF928D
:102C9000EF92FF920F931F93CF93DF93CDB7DEB7E1
:102CA000A1970FB6F894DEBF0FBECDBF7C01FA012D
:102CB000CB0119A2223008F42AE08E010F5D1F4FCC
:102CC000822E912CB12CA12CBF01A50194010E9450
:102CD000F821F901CA016A300CF5605DD8016E93E4
:102CE0008D01232B242B252B79F790E080E0109782
:102CF00021F0BD01C7010E948815A1960FB6F89476
:102D0000DEBF0FBECDBFDF91CF911F910F91FF901E
:102D1000EF90BF90AF909F908F900895695CDECF49
:102D2000CF92DF92EF92FF920F931F93CF93DF9397
:102D30006B01770FEE08FF08F7FE1FC0EC01E8817A
:102D4000F9810190F081E02D6DE219958C01442705
:102D50005527BA014C195D096E097F092AE0CE0199
:102D60000E944416800F911FDF91CF911F910F9108
:102D7000FF90EF90DF90CF9008952AE0B701A60171
:102D8000DF91CF911F910F91FF90EF90DF90CF9047
:102D90000C94441685ED8093BC008091E7029091DD
:102DA000E802A091E902B091EA020796A11DB11DC7
:102DB00023E0B695A795979587952A95D1F7209109
:102DC000BC0024FD03C01092E50208954091E70283
:102DD0005091E8026091E9027091EA02452B462B7E
:102DE000472B69F30097A105B10541F025E32A952A
:102DF000F1F700000197A109B109E1CF8091E60246
:102E00000C9470121F920F920FB60F9211242F93F1
:102E10003F938F939F93AF93BF938091A50390911E
:102E2000A603A091A703B091A8033091A40323E0C7
:102E3000230F2D3758F50196A11DB11D2093A40332
:102E40008093A5039093A603A093A703B093A80330
:102E50008091A9039091AA03A091AB03B091AC0318
:102E60000196A11DB11D8093A9039093AA03A0937D
:102E7000AB03B093AC03BF91AF919F918F913F9102
:102E80002F910F900FBE0F901F90189526E8230FDB
:102E90000296A11DB11DD2CF1F920F920FB60F92B5
:102EA00011240BB60F922F933F934F935F936F9321
:102EB0007F938F939F93AF93BF93EF93FF9387EB92
:102EC00093E00E940609FF91EF91BF91AF919F910E
:102ED0008F917F916F915F914F913F912F910F90C3
:102EE0000BBE0F900FBE0F901F9018951F920F9260
:102EF0000FB60F9211240BB60F922F933F934F935F
:102F00005F936F937F938F939F93AF93BF93EF9351
:102F1000FF9387EB93E00E949208FF91EF91BF919E
:102F2000AF919F918F917F916F915F914F913F9161
:102F30002F910F900BBE0F900FBE0F901F90189502
:102F40001F920F920FB60F9211240BB60F922F9370
:102F50003F934F935F936F937F938F939F93AF9321
:102F6000BF93EF93FF9384E594E00E940609FF91DD
:102F7000EF91BF91AF919F918F917F916F915F91F1
:102F80004F913F912F910F900BBE0F900FBE0F905E
:102F90001F9018951F920F920FB60F9211240BB627
:102FA0000F922F933F934F935F936F937F938F93E2
:102FB0009F93AF93BF93EF93FF9384E594E00E94B8
:102FC0009208FF91EF91BF91AF919F918F917F9167
:102FD0006F915F914F913F912F910F900BBE0F908A
:102FE0000FBE0F901F9018951F920F920FB60F9261
:102FF00011240BB60F922F933F934F935F936F93D0
:103000007F938F939F93AF93BF93EF93FF9381EF42
:1030100094E00E940609FF91EF91BF91AF919F91BB
:103020008F917F916F915F914F913F912F910F9071
:103030000BBE0F900FBE0F901F9018951F920F920E
:103040000FB60F9211240BB60F922F933F934F930D
:103050005F936F937F938F939F93AF93BF93EF9300
:10306000FF9381EF94E00E949208FF91EF91BF914E
:10307000AF919F918F917F916F915F914F913F9110
:103080002F910F900BBE0F900FBE0F901F901895B1
:103090001F920F920FB60F9211240BB60F922F931F
:1030A0003F934F935F936F937F938F939F93AF93D0
:1030B000BF93EF93FF938091B900887F803609F426
:1030C0004DC008F040C0883209F4A9C028F580310D
:1030D00009F49DC0C8F4882309F4FBC0883009F4C2
:1030E00096C0FF91EF91BF91AF919F918F917F918A
:1030F0006F915F914F913F912F910F900BBE0F9069
:103100000FBE0F901F901895883109F488C0803247
:1031100041F78093E30214C0803409F49DC040F469
:103120008033B9F38833E9F68093E30285ECB0C0CD
:10313000803509F485C0883509F496C0883489F64D
:103140000E94CA16CECF883909F48CC038F588376A
:1031500029F050F4883611F0803719F683E0809317
:10316000E5021092BE0257C0883809F47BC080394E
:1031700019F0803809F0B5CF8091BE02803208F096
:1031800071C0E091BE0281E08E0F8093BE028091FB
:10319000BB00F0E0E256FD4F80833DC0803B39F03C
:1031A000E0F4803A09F479C0883A09F09ACF84E0D3
:1031B0008093E50210929D0210929C02E091AF0371
:1031C000F091B003199580919C0281110FC081E0AC
:1031D00080939C0210927C0209C0803C09F4A6CF27
:1031E000883C09F4A3CF883B09F07BCFE0919D0296
:1031F00081E08E0F80939D02F0E0E458FD4F8081C6
:103200008093BB0090919D0280919C0229C0809187
:10321000E0028093BB0085EC8093BC0062CF90916C
:10322000E2028091E102981758F5E091E20281E014
:103230008E0F8093E202F0E0E154FD4F8081E9CFF0
:10324000E091E20281E08E0F8093E2028091BB0068
:10325000F0E0E154FD4F80839091E2028091E10221
:103260009817C8F285E8D8CFE091E20281E08E0F8E
:103270008093E2028091BB00F0E0E154FD4F808337
:103280008091E40281115CCF81E08093DF0284EAC7
:103290008093BC001092E50224CF85EC8093BC00A3
:1032A0001092E5028091BE02803230F4E091BE02BD
:1032B000F0E0E256FD4F10826091BE0270E0E091B6
:1032C000AD03F091AE038EE992E019951092BE0223
:1032D00008CF1092E30234CFE7EBF3E013821282BF
:1032E00048EE53E060E070E0448355836683778363
:1032F0008CE092E09183808325ED30E03587248750
:1033000024ED30E03787268720ED30E0318B208BAD
:1033100021ED30E0338B228B22ED30E0358B248B96
:1033200026ED30E0378B268B118E128E138E148E85
:10333000E4E5F4E013821282448355836683778345
:10334000918380832DEC30E0358724872CEC30E0AE
:103350003787268728EC30E0318B208B29EC30E052
:10336000338B228B2AEC30E0358B248B2EEC30E033
:10337000378B268B118E128E138E148EE1EFF4E0B4
:10338000138212824483558366837783918380837B
:1033900085EC90E09587848784EC90E0978786871A
:1033A00080EC90E0918B808B81EC90E0938B828B12
:1033B00082EC90E0958B848B86EC90E0978B868BEB
:1033C000118E128E138E148EAEE8B5E013961C92F9
:1033D0001E92129714964D935D936D937C9317975D
:1033E0008EE192E011969C938E93EAE9F5E01382C8
:1033F000128220E830E03583248380E490E09783D4
:1034000086833187208793878287168A158614865C
:103410001786168681E0858B848B2FEF3FEF338BE9
:10342000228B318B208B878B108E128E118E80E336
:1034300092E091838083148E138EB68FA58F10A295
:10344000178E8FEF84A385A386A387A380A780E828
:103450009AE1A6E0B0E085AB96ABA7ABB0AF80EA4F
:1034600096E8A1E0B0E081AF92AFA3AFB4AF80E542
:1034700086AF17AE0895CF93DF93CDB7DEB72E9703
:103480000FB6F894DEBF0FBECDBF789484B58260CE
:1034900084BD84B5816084BD85B5826085BD85B5F8
:1034A000816085BD80916E00816080936E00109276
:1034B00081008091810082608093810080918100F1
:1034C0008160809381008091800081608093800082
:1034D0008091B10084608093B1008091B0008160E0
:1034E0008093B000809191008260809391008091E0
:1034F0009100816080939100809190008160809321
:1035000090008091A10082608093A1008091A10031
:1035100081608093A1008091A00081608093A000D1
:10352000809121018260809321018091210181603D
:1035300080932101809120018160809320018091FE
:103540007A00846080937A0080917A008260809310
:103550007A0080917A00816080937A0080917A006D
:10356000806880937A001092C10040E052EC61E0E4
:1035700070E081EF94E00E94D60664E670E080E09F
:1035800090E00E94080887E097E00E94971540E8C5
:1035900055E260E070E084E594E00E94D60640E8E1
:1035A00055E260E070E087EB93E00E94D6060E944F
:1035B000591288E98093B80010920B0388EA91E6CB
:1035C000A0E0B0E08093E7029093E802A093E902C4
:1035D000B093EA0281E08093E60264E670E080E066
:1035E00090E00E94080810921703109216031092A0
:1035F0001C0310921A0310921903109218031092D0
:103600001D0310921B038EEE96E00E949715412C2D
:1036100044E2542E44EF642E712C84E594E00E9421
:10362000DC08892B89F184E594E00E94BA088D308A
:10363000A1F39091A303E92FF0E0ED59FC4F8A30FC
:1036400011F09F33C0F01082992391F065E37CE084
:1036500081EF94E00E94410863E673E081EF94E01B
:103660000E94881568E572E081EF94E00E94881559
:103670001092A303D2CF9F5F9093A3038083CDCFFB
:103680009F5F90936203808387EB93E00E94DC0846
:10369000892B41F187EB93E00E94BA088D30A1F3AA
:1036A00090916203E92FF0E0EE5DFC4F8A3011F05B
:1036B0009F3330F31082992391F06FE27CE081EF29
:1036C00094E00E94410862E273E081EF94E00E947E
:1036D000881568E572E081EF94E00E9488151092E9
:1036E0006203D2CF2FB7F8948091A5039091A603DF
:1036F000A091A703B091A8032FBF40911E03509142
:103700001F036091200370912103841B950BA60B6E
:10371000B70BC297A105B10508F4ABC12FB7F89458
:103720008091A5039091A603A091A703B091A8034F
:103730002FBF80931E0390931F03A0932003B09389
:10374000210326E032E038872F8326E1C22E23E0D2
:10375000D22E4CE153E05E834D83912C812C35ECCD
:10376000A32EAF81B885BD90B887AF8380910B033E
:1037700010920B030E94E30769837A838B839C83F7
:103780008091E502811179C031E03093E5023093F8
:10379000E4024FEF4093E3021092E2023093E10221
:1037A0003093E0029091E0028B2D880F892B80935B
:1037B000E0028091DF02813009F0B7C01092DF0291
:1037C0000E94E30769837A838B839C838091E00264
:1037D0008093BB008091E7029091E802A091E902FA
:1037E000B091EA02892B8A2B8B2B01F10E94E3070F
:1037F0002091E7023091E8024091E9025091EA02FB
:103800002B873C874D875E8729813A814B815C817C
:10381000621B730B840B950B2B853C854D855E8558
:10382000261737074807590708F454C08091BC0091
:1038300083FDCCCFA092BC000E94E30769837A830A
:103840008B839C838091E502813009F472C0809162
:10385000E20212E0823010F41091E202AFEBB2E02B
:10386000EBEEF2E080E08117D1F19D9191938F5FB3
:10387000FACF88248394912C74CF8091E7029091A1
:10388000E802A091E902B091EA02892B8A2B8B2BE6
:1038900009F476CF0E94E3072091E7023091E80215
:1038A0004091E9025091EA022B873C874D875E8761
:1038B00029813A814B815C81621B730B840B950BD0
:1038C0002B853C854D855E852617370748075907A8
:1038D00008F056CF8091E6020E94701210E010921C
:1038E000B2031093B10380910B03882309F44FC0F6
:1038F00066E277E081EF94E00E944108412F50E0BA
:1039000070E060E02AE081EF94E00E94441668E5F0
:1039100072E081EF94E00E94881580910B03109271
:103920000B030E94AA1580E04CC035EE3093BC001A
:1039300083CF8091E7029091E802A091E902B091D3
:10394000EA02892B8A2B8B2B09F47CCF0E94E30798
:103950002091E7023091E8024091E9025091EA0299
:103960002B873C874D875E8729813A814B815C811B
:10397000621B730B840B950B2B853C854D855E85F7
:10398000261737074807590708F05CCFA3CF123036
:1039900048F48091B203181731F28EE895E00E9446
:1039A000A012F7CF8EE895E00E94A012182F8EE8A3
:1039B00095E00E94A0121A87198629843A84282A41
:1039C00081E0AD81BE818D93BE83AD83882309F4F0
:1039D00049C08401065E1C4FF601E080F180D801E9
:1039E0008C918111F7C0B1E0B093B603B092B503EA
:1039F0001092B4031092B3036F2D8EE895E00E94ED
:103A0000E0126E2D8EE895E00E94E0128EE895E0BF
:103A10000E940F13882351F080910B03882331F00B
:103A200080910B0310920B030E94AA15F60180816E
:103A3000918182159305B1F4E1E0D801EC9366E23F
:103A40007CE081EF94E00E9441084B2D50E070E053
:103A500060E020E181EF94E00E94441689E19CE05F
:103A60000E949715B2E0CB0ED11C8A94892809F0E8
:103A700000CF2FB7F8948091A5039091A603A09151
:103A8000A703B091A8032FBF4091120350911303D5
:103A90006091140370911503841B950BA60BB70B53
:103AA000883E9340A105B10508F491C02FB7F89462
:103AB0008091A5039091A603A091A703B091A803BC
:103AC0002FBF8093120390931303A0931403B0931A
:103AD00015031CE1A12E13E0B12E06E1E02E03E058
:103AE000F02E6701450101E010E067E17CE081EF25
:103AF00094E00E944108B80181EF94E00E94901682
:103B000064E17CE081EF94E00E944108D4018D9152
:103B10004D01882309F480C0F6016081718181EF35
:103B200094E00E9490166DE07CE081EF94E00E94AA
:103B30004108F2E0CF0ED11C0230110509F069C036
:103B400068E572E081EF94E00E94881580910E0391
:103B500090910F03A0911003B09111030196A11D44
:103B6000B11D80930E0390930F03A0931003B093A5
:103B7000110380910D03811152C18091B90590917B
:103B8000BA05892B09F04FC02091A0053091A105FD
:103B9000C901079697FD0796B3E095958795BA9565
:103BA000E1F720919E0530919F05AC01429FC00135
:103BB000439F900D529F900D11240E9422229093BA
:103BC000BA058093B905892B71F510920D030E94F7
:103BD000950923CDE214F30409F444CF3182208205
:103BE0008401000F111FC8010E94E221381621F044
:103BF000632DC8010E94EA210F5F1F4FC8010E9478
:103C0000E221281609F42ECF622DC8010E94EA2174
:103C100029CF02E010E069CF60E17CE081EF94E021
:103C20000E94410880CF0E9466152091A005309126
:103C3000A10580919E0590919F05B9012132310522
:103C40000CF4FFC16054710977FF02C06F5F7F4FB2
:103C5000759567958255910997FD019600E410E0EE
:103C600022E530E047E259E0959587950E940611DC
:103C700052E05093BC058091B7059091B805892B0F
:103C800009F4F2C18CE38093BB050E945912809124
:103C9000C20587FD1EC061E00E94B20761E080910D
:103CA000C2050E94840761E070E080E090E00E941D
:103CB000080860E08091C2050E9484076AE070E015
:103CC00080E090E00E94080861E08091C2050E94B7
:103CD00084078091B7059091B805892B09F483C2B8
:103CE0002091CF053091D0054091D1055091D2055A
:103CF000C301B2010E94F821205131094109510943
:103D000056954795379527952093B80064E083E44E
:103D100097E00E94F6136091A00561508AE995E052
:103D20000E94AB1464E08FE397E00E94F613809149
:103D3000BC0560E1813009F064E18AE995E00E9408
:103D4000AB1464E08BE397E00E94F6138FE8809356
:103D5000D70580919E0590919F058038910509F0C7
:103D600059C28091A0059091A1058034910509F078
:103D700061C28091BC05813009F06FC28FE98093E8
:103D8000D70512E16AED8AE995E00E94AB14612F34
:103D90008AE995E00E94AB1461E88AE995E00E9407
:103DA000AB146091D7058AE995E00E94AB1469EDE8
:103DB0008AE995E00E94AB148091BC0562E28130F3
:103DC00009F061EF8AE995E00E94AB1466E085E3B3
:103DD00097E00E94F6138091B7059091B805892B62
:103DE00009F43DC22091D3053091D4054091D50509
:103DF0005091D605C301B2010E94F821205131092A
:103E00004109510956954795379527952093B80054
:103E100081E080930D038CEF9BE00E9497150E9438
:103E20006615A1E0B0E0B093AD05A093AC05B093EA
:103E3000AB05A093AA05D12CC12C01E010E0B2E0A3
:103E4000B093AE05B093AF051092A7051092A605EA
:103E5000D092A905C092A8056AEF7BE08AE995E0B7
:103E60000E944108B8018AE995E00E94901666EF29
:103E70007BE08AE995E00E944108F50181915F01AC
:103E8000882309F4FCC1D7016D917C918AE995E002
:103E90000E949016B4E1CB0ED11CE2E0EE0EF11CB4
:103EA0000230110509F0E8C1F1E0F093AE05F0939E
:103EB000AF051092A7051092A60528E330E03093D5
:103EC000A9052093A8056BEE7BE08AE995E00E94A6
:103ED000410840910E0350910F03609110037091BF
:103EE00011032AE08AE995E00E9444168091B70503
:103EF0009091B805892B09F4C9C12091CF05309163
:103F0000D0054091D1055091D205C301B2010E9464
:103F1000F8212051310941095109569547953795A6
:103F200027952093B80064E087EE9BE00E94F6138B
:103F300080919E0590919F058034910509F0BDC147
:103F400060E28AE995E00E94AB1460919E05615E93
:103F50008AE995E00E94AB142091A0053091A1055B
:103F6000C901079697FD079633E0959587953A9591
:103F7000E1F720919E0530919F05829F7001839FFC
:103F8000F00C929FF00C11240091B9051091BA0524
:103F90008091B7059091B805E00EF11E009709F4E5
:103FA000B5C12091BB0531E03093B6032093B50332
:103FB0001092B4031092B303DC01ED91FC910190D7
:103FC000F081E02D60E41995CC24C394D12C80912C
:103FD000B7059091B805E016F10609F477C1B0E293
:103FE000CB16D104E0F00E940F138091B705909199
:103FF000B8052091BB05E1E0E093B6032093B5033B
:104000001092B4031092B303DC01ED91FC91019086
:10401000F081E02D60E41995CC24C394D12C8091DB
:10402000B7059091B805F80161918F01DC01ED9120
:10403000FC910190F081E02D1995BFEFCB1ADB0ABE
:10404000C6CF6052710977FF02C06F5F7F4F7595D1
:1040500067958357910997FD019600E210E023E7E9
:1040600030E047E457E000CE61E08091C0050E9457
:10407000B20761E08091C1050E94B2078091C0053E
:10408000082E000C990BFC01E159F34FE491F0E08C
:10409000EE0FFF1FEB5AF34F259134913093C80573
:1040A0002093C705FC01EB54F34FE491E093CD0559
:1040B0008091C105082E000C990BFC01E159F34FCA
:1040C000E491F0E0EE0FFF1FEB5AF34FA591B4918E
:1040D000B093CA05A093C905FC01EB54F34FE491DA
:1040E000E093CE058C91E82BEC938091B5059091EF
:1040F000B605892B09F434C01FB7F89480910C03DE
:10410000811127C0E4EAFCE09491EAEEFCE084919E
:10411000E92FF0E0EE0FFF1FE55CF34FA591B4919E
:10412000EC918E2321F461E085E30E94840761E035
:1041300085E30E94B2078CB580618CBD8CB580642C
:104140008CBD61E084E30E94B20761E083E30E94DA
:10415000B20780910C038F5F80930C031FBF97CD34
:1041600061E08091BE050E94B20761E08091BF05C9
:104170000E94B2078091BE05082E000C990BFC012D
:10418000E159F34FE491F0E0EE0FFF1FEB5AF34FCC
:10419000259134913093C4052093C305FC01EB5461
:1041A000F34FE491E093CB058091BF05082E000CFE
:1041B000990BFC01E159F34FE491F0E0EE0FFF1F82
:1041C000EB5AF34FA591B491B093C605A093C505E2
:1041D000FC01EB54F34FE491E093CC058C91E09516
:1041E000E823EC9354CD8091B5059091B605892BC9
:1041F00031F08091D8059091D9050E941C0CE09176
:10420000C905F091CA0590818091CE0580958923DA
:1042100080837CCD8036910589F48091A0059091B2
:10422000A105409739F48091BC05813029F480E1E3
:104230008093D70512E0A6CD8FEAFACF803491059E
:10424000C9F78091A0059091A105809799F7809179
:10425000BC05813011F480E192CD8FEC90CDE091DE
:10426000C905F091CA0580819091CE05892B808384
:1042700091E090930D03CFCD02E010E0E0CD62EF2E
:104280007BE08AE995E00E94410804CE8091B50563
:104290009091B605892B31F08091D8059091D90580
:1042A0000E941C0CE091C905F091CA059081809193
:1042B000CE0580958923808336CE60E08AE995E03B
:1042C0000E94AB1460919E05615042CE0E940F1374
:1042D0008091B7059091B805892B09F45AC02091B7
:1042E000D3053091D4054091D5055091D605C30131
:1042F000B2010E94F8212051310941095109569516
:104300004795379527952093B80061CCE091C70574
:10431000F091C80580819091CD05892B8083E016AE
:10432000F106B1F2F80181918F012091B50530912C
:10433000B605232B19F00E94150CF1CF28E030E0D0
:1043400090E8E091C305F091C4054091CB05582F4A
:104350005923D9F05081452B4083E091C505F09158
:10436000C60540815091CC05452B4083E091C505A1
:10437000F091C60550814091CC054095452340837E
:10438000969521503109E9F6CACF508140954523D1
:10439000E3CFE091C905F091CA0580819091CE05E7
:1043A000892B808314CC80E392E090939B058093CB
:1043B0009A058091B9059091BA05009711F00C9477
:1043C000BE220895F999FECF92BD81BDF89A992732
:1043D00080B50895262FF999FECF1FBA92BD81BDF1
:1043E00020BD0FB6F894FA9AF99A0FBE0196089577
:1043F000A1E21A2EAA1BBB1BFD010DC0AA1FBB1FE9
:10440000EE1FFF1FA217B307E407F50720F0A21B5A
:10441000B30BE40BF50B661F771F881F991F1A94C7
:1044200069F760957095809590959B01AC01BD01F1
:10443000CF010895EE0FFF1F881F8BBF0790F691E5
:10444000E02D19940F931F93CF93DF938230910542
:1044500010F482E090E0E091DC05F091DD0530E0C1
:1044600020E0B0E0A0E0309799F42115310509F47F
:104470004AC0281B390B24303105D8F58A819B812D
:104480006115710589F1FB0193838283FE0111C0DF
:10449000408151810281138148175907E0F0481784
:1044A000590799F4109761F012960C93129713968E
:1044B0001C933296CF01DF91CF911F910F910895F8
:1044C0000093DC051093DD05F4CF2115310551F083
:1044D0004217530738F0A901DB019A01BD01DF0142
:1044E000F801C1CFEF01F9CF9093DD058093DC0592
:1044F000CDCFFE01E20FF31F81939193225031093A
:1045000039832883D7CF2091DA053091DB05232B1F
:1045100041F420910202309103023093DB05209395
:10452000DA0520910002309101022115310541F494
:104530002DB73EB74091040250910502241B350B64
:10454000E091DA05F091DB05E217F307A0F42E1BEA
:104550003F0B2817390778F0AC014E5F5F4F2417E7
:10456000350748F04E0F5F1F5093DB054093DA0587
:10457000819391939FCFF0E0E0E09CCFCF93DF93C6
:104580000097E9F0FC01329713821282A091DC05BA
:10459000B091DD05ED0130E020E01097A1F420811D
:1045A0003181820F931F2091DA053091DB052817A6
:1045B000390709F061C0F093DB05E093DA05DF917C
:1045C000CF910895EA01CE17DF07E8F54A815B81B4
:1045D0009E0141155105B1F7E901FB83EA83499139
:1045E0005991C40FD51FEC17FD0761F480819181AB
:1045F0000296840F951FE9019983888382819381B4
:104600009B838A83F0E0E0E012968D919C91139752
:104610000097B9F52D913C911197CD010296820F2B
:10462000931F2091DA053091DB052817390739F6F9
:10463000309751F51092DD051092DC05B093DB0543
:10464000A093DA05BCCFD383C28340815181840F0C
:10465000951FC817D90761F44E5F5F4F8881998114
:10466000480F591F518340838A819B8193838283A2
:104670002115310509F0B0CFF093DD05E093DC059D
:104680009ECFFD01DC01C0CF13821282D7CF81E023
:1046900090E0F8940C945323DC0101C06D934150D9
:1046A0005040E0F7089516E0C2EAD6E000E006C008
:1046B000802FFE010E941A222196011DC33AD107C4
:0A46C00080E00807A9F7F894FFCF87
:1046CA000000DE05800010110000000028096508BE
:1046DA00AB087509DC08BA08CE0800000000E01231
:1046EA00B31263151C073A08A012911200000000C9
:1046FA005A0E650863151312650B1C07FF10D710B5
:10470A00F310E71067111C07200C0D15D50A1E0BB4
:0C471A00201003108B0F2C0F0D0A000064
:00000001FF
