:100000000EC028C027C026C0DDC024C023C022C027
:1000100021C020C01FC01EC01DC0D3C11AC11124E1
:100020001FBECFE5D2E0DEBFCDBF10E0A0E6B0E05E
:10003000E4E6F6E002C005900D92A237B107D9F7C9
:1000400020E0A2E7B0E001C01D92A03BB207E1F7BB
:1000500000D206C3D5CF9091AF009923A1F0909123
:10006000AE00903240F59091AD00E92FF0E0EE58EF
:10007000FF4F808381E0890F8093AD008093AE00B5
:1000800081E090E008952091AC009091AB002F5F4B
:10009000921B9F7081F09091AC009F5F9F702091A8
:1000A000AB009217E1F3E92FF0E0EE57FF4F8083AA
:1000B0009093AC00E5CF90E080E0089580919E00A1
:1000C00090919F00892FC7DF80919E0090919F00A3
:1000D000C2CF9091AA008091A900891B8F700895CA
:1000E0008091AE00882339F02091AD00821318C0B2
:1000F0008FEF9FEF0895EDDF8823D1F39091AA0051
:100100008091A9009817E1F3E091AA00EF5FEF70EA
:10011000E093AA00F0E0EE58FF4F808190E0089550
:10012000E22FF0E0EE58FF4F808190E02F5F2093A8
:10013000AD000895CF93DF930297D4F0D1DFD82F8D
:10014000CFDFC82F8091AE00882341F09091AD00A1
:10015000891B990B892B29F0C3DFF4CFBADF90E01C
:10016000F9CF80E09D2F8C2B90939F0080939E0071
:10017000DF91CF910895FC019191992311F1C498D9
:10018000ACEAB1E01197F1F700C0000028E0492F78
:1001900050E090FF14C0C49A55954795942FACEA4F
:1001A000B1E01197F1F700C00000215081F7C49A27
:1001B0008CEA91E00197F1F700C00000DDCFC49810
:1001C000EBCF089578941F920F920FB60F921124DF
:1001D0002F933F938F939F93AF93BF938091A500ED
:1001E0009091A600A091A700B091A8003091A40022
:1001F0002CE7230F2D3728F02FEF230F0196A11D99
:10020000B11D2093A4008093A5009093A600A09315
:10021000A700B093A8008091A0009091A100A091A8
:10022000A200B091A3000196A11DB11D8093A00072
:100230009093A100A093A200B093A300BF91AF91AF
:100240009F918F913F912F910F900FBE0F901F9014
:1002500018951F920F920FB60F9211240F931F93B0
:100260002F933F934F935F936F937F938F939F93BE
:10027000AF93BF93CF93EF93FF938091920082301F
:1002800009F476C0C8F4882399F1813009F456C086
:10029000FF91EF91CF91BF91AF919F918F917F91FE
:1002A0006F915F914F913F912F911F910F910F90FF
:1002B0000FBE0F901F901895843009F45FC0B8F1FD
:1002C000853031F784E0809392009FB18091A9003E
:1002D0008F5F8F702091AA00281709F470C0809357
:1002E000A900E091A900F0E0EE58FF4F908319C0FB
:1002F0008FB1882331F08FB1869590919300891347
:1003000019C0789B12C0E0919600F0919700309749
:1003100029F08091AC008093AB00099581E0809337
:1003200092001FB8B89A8EE721C084E0F8CF8FB151
:10033000882321F0B89888EA8DB917C08091AB0066
:100340009091AC009817B1F38091AB008F5F8F70E4
:100350008093AB00E091AB00F0E0EE57FF4F80815F
:100360008FB982E080939200B89A80E78EB990CFDF
:1003700083E080939200B8981FB8D5CF85E0809332
:100380009200B89880E78EB9009194001091950082
:100390000115110509F47CCFC091A9008091AA0034
:1003A0008C1709F475CF8EB18E7AE9F3759B70CFF7
:1003B00090DE90E0F8010995C093AA0069CFB89843
:1003C000B2CF1F920F920FB60F9211240F931F936B
:1003D0002F933F934F935F936F937F938F939F934D
:1003E000AF93BF93CF93EF93FF930091940010913D
:1003F00095000115110561F0C091A9008091AA0036
:100400008C1731F066DE90E0F8010995C093AA00E0
:1004100010929200B898B29B1AC0B09BFCCF88EAA9
:100420008DB980EF8EB9FF91EF91CF91BF91AF91D0
:100430009F918F917F916F915F914F913F912F91FC
:100440001F910F910F900FBE0F901F90189588EF7E
:10045000E7CFCF93DF93CDB7DEB728970FB6F894E9
:10046000DEBF0FBECDBF789480B7806880BF80B7F5
:10047000806480BF8CB580648CBD8FEF8DBD80B7EC
:10048000807F876080BF89B7846089BF83B7887F9A
:1004900083BF8AB58C7F81608ABD83B7877F83BF26
:1004A00083B7887F836083BF86B1876086B9379AB8
:1004B000BC9AC49A87B3857F87BB88B38A6088BBA0
:1004C0001092AD001092AE001092AF001092AA00F0
:1004D0001092A9001092AB001092AC0081E18093C1
:1004E000930010929700109296001092950010922F
:1004F0009400C29AC09ABA9AB89888EA8DB980EFE7
:100500008EB98AE990E090939500809394008EE5EF
:1005100090E090939700809396002FE089E095E01B
:10052000215080409040E1F700C0000081E690E05B
:1005300022DE96B391FB882780F920916000821714
:1005400081F081110CC020919E0030919F0093FD9D
:1005500051C02F5F3F4F30939F0020939E008093A8
:1005600060008CE991E00197F1F7000080919C0018
:1005700090919D00019690939D0080939C00803106
:100580009742B8F210929D0010929C0080919800C2
:1005900090919900A0919A00B0919B000196A11DA5
:1005A000B11D8093980090939900A0939A00B09306
:1005B0009B0089E690E0DFDD4AE0BE016F5F7F4F80
:1005C000809198009091990018D0CE010196D3DDCA
:1005D0008CE690E0D0DD80919E0090919F004AE0F3
:1005E000BE016F5F7F4F09D0CE010196C4DD86E664
:1005F00090E09ECF21503109AECFBB274A3031F475
:10060000992322F4BDE2909581959F4F01C0BB27AD
:10061000FB015527AA27880F991FAA1FA41710F0BE
:10062000A41B83955051B9F7A05DAA3308F0A95DCA
:10063000A193009779F7B111B1931192CB0100C04A
:10064000DC01FC01672F71917723E1F7329704C039
:100650007C916D9370836291AE17BF07C8F30895C4
:04066000F894FFCF3C
:100664000173746172740D0A00743D0020656E6339
:020674003D0047
:00000001FF
