:100000000C9434000C9449000C9449000C94490061
:100010000C9449000C9449000C9449000C9449003C
:100020000C9449000C9449000C9449000C9449002C
:100030000C9449000C9449000C9449000C9449001C
:100040000C9449000C9449000C9449000C9449000C
:100050000C9449000C9449000C9449000C944900FC
:100060000C9449000C94490011241FBECFEFD8E036
:10007000DEBFCDBF11E0A0E0B1E0E4E2F1E002C0FC
:1000800005900D92A231B107D9F70E9458000C9447
:1000900090000C940000FC012081211101C0089502
:1000A00001963091C00035FFFCCF2093C600F3CFFE
:1000B0001092C50087E68093C40088E18093C10058
:1000C00086E08093C200549A5C982FEF81EE94E012
:1000D000215080409040E1F700C0000080E091E0B6
:1000E0000E944B008091C00087FFFCCF8091C00030
:1000F00087FFFCCFC091C600C83471F45C9A8DE0D4
:1001000091E00E944B008091C00085FFFCCFC0931E
:10011000C6008AE091E0E4CFCC3489F75C98EFCF59
:04012000F894FFCF81
:100124006563686F2D72656164790D0A00676F7489
:020134003A008F
:00000001FF
